{
  "contractName": "RiobitBackend",
  "abi": [
    {
      "constant": true,
      "inputs": [],
      "name": "name",
      "outputs": [
        {
          "name": "",
          "type": "string"
        }
      ],
      "payable": false,
      "stateMutability": "view",
      "type": "function"
    },
    {
      "constant": true,
      "inputs": [],
      "name": "totalSupply",
      "outputs": [
        {
          "name": "",
          "type": "uint256"
        }
      ],
      "payable": false,
      "stateMutability": "view",
      "type": "function"
    },
    {
      "constant": true,
      "inputs": [],
      "name": "numerai",
      "outputs": [
        {
          "name": "",
          "type": "address"
        }
      ],
      "payable": false,
      "stateMutability": "view",
      "type": "function"
    },
    {
      "constant": true,
      "inputs": [
        {
          "name": "_addr",
          "type": "address"
        }
      ],
      "name": "isOwner",
      "outputs": [
        {
          "name": "",
          "type": "bool"
        }
      ],
      "payable": false,
      "stateMutability": "view",
      "type": "function"
    },
    {
      "constant": true,
      "inputs": [],
      "name": "decimals",
      "outputs": [
        {
          "name": "",
          "type": "uint256"
        }
      ],
      "payable": false,
      "stateMutability": "view",
      "type": "function"
    },
    {
      "constant": true,
      "inputs": [],
      "name": "delegateContract",
      "outputs": [
        {
          "name": "",
          "type": "address"
        }
      ],
      "payable": false,
      "stateMutability": "view",
      "type": "function"
    },
    {
      "constant": true,
      "inputs": [],
      "name": "standard",
      "outputs": [
        {
          "name": "",
          "type": "string"
        }
      ],
      "payable": false,
      "stateMutability": "view",
      "type": "function"
    },
    {
      "constant": false,
      "inputs": [],
      "name": "emergencyStop",
      "outputs": [],
      "payable": false,
      "stateMutability": "nonpayable",
      "type": "function"
    },
    {
      "constant": true,
      "inputs": [
        {
          "name": "",
          "type": "address"
        }
      ],
      "name": "balanceOf",
      "outputs": [
        {
          "name": "",
          "type": "uint256"
        }
      ],
      "payable": false,
      "stateMutability": "view",
      "type": "function"
    },
    {
      "constant": true,
      "inputs": [
        {
          "name": "",
          "type": "uint256"
        }
      ],
      "name": "tournaments",
      "outputs": [
        {
          "name": "creationTime",
          "type": "uint256"
        }
      ],
      "payable": false,
      "stateMutability": "view",
      "type": "function"
    },
    {
      "constant": true,
      "inputs": [],
      "name": "stopped",
      "outputs": [
        {
          "name": "",
          "type": "bool"
        }
      ],
      "payable": false,
      "stateMutability": "view",
      "type": "function"
    },
    {
      "constant": false,
      "inputs": [
        {
          "name": "_owners",
          "type": "address[]"
        },
        {
          "name": "_required",
          "type": "uint256"
        }
      ],
      "name": "changeShareable",
      "outputs": [],
      "payable": false,
      "stateMutability": "nonpayable",
      "type": "function"
    },
    {
      "constant": true,
      "inputs": [],
      "name": "contractUpgradable",
      "outputs": [
        {
          "name": "",
          "type": "bool"
        }
      ],
      "payable": false,
      "stateMutability": "view",
      "type": "function"
    },
    {
      "constant": false,
      "inputs": [],
      "name": "release",
      "outputs": [],
      "payable": false,
      "stateMutability": "nonpayable",
      "type": "function"
    },
    {
      "constant": true,
      "inputs": [],
      "name": "initial_disbursement",
      "outputs": [
        {
          "name": "",
          "type": "uint256"
        }
      ],
      "payable": false,
      "stateMutability": "view",
      "type": "function"
    },
    {
      "constant": true,
      "inputs": [],
      "name": "symbol",
      "outputs": [
        {
          "name": "",
          "type": "string"
        }
      ],
      "payable": false,
      "stateMutability": "view",
      "type": "function"
    },
    {
      "constant": true,
      "inputs": [],
      "name": "weekly_disbursement",
      "outputs": [
        {
          "name": "",
          "type": "uint256"
        }
      ],
      "payable": false,
      "stateMutability": "view",
      "type": "function"
    },
    {
      "constant": true,
      "inputs": [],
      "name": "deploy_time",
      "outputs": [
        {
          "name": "",
          "type": "uint256"
        }
      ],
      "payable": false,
      "stateMutability": "view",
      "type": "function"
    },
    {
      "constant": false,
      "inputs": [
        {
          "name": "_operation",
          "type": "bytes32"
        }
      ],
      "name": "revoke",
      "outputs": [],
      "payable": false,
      "stateMutability": "nonpayable",
      "type": "function"
    },
    {
      "constant": true,
      "inputs": [],
      "name": "stoppable",
      "outputs": [
        {
          "name": "",
          "type": "bool"
        }
      ],
      "payable": false,
      "stateMutability": "view",
      "type": "function"
    },
    {
      "constant": true,
      "inputs": [],
      "name": "total_minted",
      "outputs": [
        {
          "name": "",
          "type": "uint256"
        }
      ],
      "payable": false,
      "stateMutability": "view",
      "type": "function"
    },
    {
      "constant": true,
      "inputs": [
        {
          "name": "_operation",
          "type": "bytes32"
        },
        {
          "name": "_owner",
          "type": "address"
        }
      ],
      "name": "hasConfirmed",
      "outputs": [
        {
          "name": "",
          "type": "bool"
        }
      ],
      "payable": false,
      "stateMutability": "view",
      "type": "function"
    },
    {
      "constant": true,
      "inputs": [
        {
          "name": "ownerIndex",
          "type": "uint256"
        }
      ],
      "name": "getOwner",
      "outputs": [
        {
          "name": "",
          "type": "address"
        }
      ],
      "payable": false,
      "stateMutability": "view",
      "type": "function"
    },
    {
      "constant": false,
      "inputs": [],
      "name": "disableStopping",
      "outputs": [],
      "payable": false,
      "stateMutability": "nonpayable",
      "type": "function"
    },
    {
      "constant": true,
      "inputs": [],
      "name": "required",
      "outputs": [
        {
          "name": "",
          "type": "uint256"
        }
      ],
      "payable": false,
      "stateMutability": "view",
      "type": "function"
    },
    {
      "constant": true,
      "inputs": [
        {
          "name": "",
          "type": "address"
        },
        {
          "name": "",
          "type": "address"
        }
      ],
      "name": "allowance",
      "outputs": [
        {
          "name": "",
          "type": "uint256"
        }
      ],
      "payable": false,
      "stateMutability": "view",
      "type": "function"
    },
    {
      "constant": true,
      "inputs": [],
      "name": "supply_cap",
      "outputs": [
        {
          "name": "",
          "type": "uint256"
        }
      ],
      "payable": false,
      "stateMutability": "view",
      "type": "function"
    },
    {
      "constant": true,
      "inputs": [],
      "name": "getMintable",
      "outputs": [
        {
          "name": "",
          "type": "uint256"
        }
      ],
      "payable": false,
      "stateMutability": "view",
      "type": "function"
    },
    {
      "constant": true,
      "inputs": [
        {
          "name": "",
          "type": "uint256"
        }
      ],
      "name": "previousDelegates",
      "outputs": [
        {
          "name": "",
          "type": "address"
        }
      ],
      "payable": false,
      "stateMutability": "view",
      "type": "function"
    },
    {
      "inputs": [
        {
          "name": "_owners",
          "type": "address[]"
        },
        {
          "name": "_num_required",
          "type": "uint256"
        },
        {
          "name": "_initial_disbursement",
          "type": "uint256"
        }
      ],
      "payable": false,
      "stateMutability": "nonpayable",
      "type": "constructor"
    },
    {
      "payable": true,
      "stateMutability": "payable",
      "type": "fallback"
    },
    {
      "anonymous": false,
      "inputs": [
        {
          "indexed": false,
          "name": "oldAddress",
          "type": "address"
        },
        {
          "indexed": false,
          "name": "newAddress",
          "type": "address"
        }
      ],
      "name": "DelegateChanged",
      "type": "event"
    },
    {
      "anonymous": false,
      "inputs": [
        {
          "indexed": false,
          "name": "value",
          "type": "uint256"
        }
      ],
      "name": "Mint",
      "type": "event"
    },
    {
      "anonymous": false,
      "inputs": [
        {
          "indexed": true,
          "name": "from",
          "type": "address"
        },
        {
          "indexed": true,
          "name": "to",
          "type": "address"
        },
        {
          "indexed": false,
          "name": "value",
          "type": "uint256"
        }
      ],
      "name": "Transfer",
      "type": "event"
    },
    {
      "anonymous": false,
      "inputs": [
        {
          "indexed": true,
          "name": "owner",
          "type": "address"
        },
        {
          "indexed": true,
          "name": "spender",
          "type": "address"
        },
        {
          "indexed": false,
          "name": "value",
          "type": "uint256"
        }
      ],
      "name": "Approval",
      "type": "event"
    },
    {
      "anonymous": false,
      "inputs": [
        {
          "indexed": true,
          "name": "staker",
          "type": "address"
        },
        {
          "indexed": false,
          "name": "tag",
          "type": "bytes32"
        },
        {
          "indexed": false,
          "name": "totalAmountStaked",
          "type": "uint256"
        },
        {
          "indexed": false,
          "name": "confidence",
          "type": "uint256"
        },
        {
          "indexed": true,
          "name": "tournamentID",
          "type": "uint256"
        },
        {
          "indexed": true,
          "name": "roundID",
          "type": "uint256"
        }
      ],
      "name": "Staked",
      "type": "event"
    },
    {
      "anonymous": false,
      "inputs": [
        {
          "indexed": true,
          "name": "tournamentID",
          "type": "uint256"
        },
        {
          "indexed": true,
          "name": "roundID",
          "type": "uint256"
        },
        {
          "indexed": false,
          "name": "endTime",
          "type": "uint256"
        },
        {
          "indexed": false,
          "name": "resolutionTime",
          "type": "uint256"
        }
      ],
      "name": "RoundCreated",
      "type": "event"
    },
    {
      "anonymous": false,
      "inputs": [
        {
          "indexed": true,
          "name": "tournamentID",
          "type": "uint256"
        }
      ],
      "name": "TournamentCreated",
      "type": "event"
    },
    {
      "anonymous": false,
      "inputs": [
        {
          "indexed": true,
          "name": "tournamentID",
          "type": "uint256"
        },
        {
          "indexed": true,
          "name": "roundID",
          "type": "uint256"
        },
        {
          "indexed": true,
          "name": "stakerAddress",
          "type": "address"
        },
        {
          "indexed": false,
          "name": "tag",
          "type": "bytes32"
        }
      ],
      "name": "StakeDestroyed",
      "type": "event"
    },
    {
      "anonymous": false,
      "inputs": [
        {
          "indexed": true,
          "name": "tournamentID",
          "type": "uint256"
        },
        {
          "indexed": true,
          "name": "roundID",
          "type": "uint256"
        },
        {
          "indexed": true,
          "name": "stakerAddress",
          "type": "address"
        },
        {
          "indexed": false,
          "name": "tag",
          "type": "bytes32"
        },
        {
          "indexed": false,
          "name": "etherReward",
          "type": "uint256"
        }
      ],
      "name": "StakeReleased",
      "type": "event"
    },
    {
      "anonymous": false,
      "inputs": [
        {
          "indexed": false,
          "name": "owner",
          "type": "address"
        },
        {
          "indexed": false,
          "name": "operation",
          "type": "bytes32"
        }
      ],
      "name": "Confirmation",
      "type": "event"
    },
    {
      "anonymous": false,
      "inputs": [
        {
          "indexed": false,
          "name": "owner",
          "type": "address"
        },
        {
          "indexed": false,
          "name": "operation",
          "type": "bytes32"
        }
      ],
      "name": "Revoke",
      "type": "event"
    },
    {
      "constant": false,
      "inputs": [],
      "name": "disableContractUpgradability",
      "outputs": [
        {
          "name": "",
          "type": "bool"
        }
      ],
      "payable": false,
      "stateMutability": "nonpayable",
      "type": "function"
    },
    {
      "constant": false,
      "inputs": [
        {
          "name": "_newDelegate",
          "type": "address"
        }
      ],
      "name": "changeDelegate",
      "outputs": [
        {
          "name": "",
          "type": "bool"
        }
      ],
      "payable": false,
      "stateMutability": "nonpayable",
      "type": "function"
    },
    {
      "constant": false,
      "inputs": [
        {
          "name": "_token",
          "type": "address"
        }
      ],
      "name": "claimTokens",
      "outputs": [],
      "payable": false,
      "stateMutability": "nonpayable",
      "type": "function"
    },
    {
      "constant": false,
      "inputs": [
        {
          "name": "_value",
          "type": "uint256"
        }
      ],
      "name": "mint",
      "outputs": [
        {
          "name": "ok",
          "type": "bool"
        }
      ],
      "payable": false,
      "stateMutability": "nonpayable",
      "type": "function"
    },
    {
      "constant": false,
      "inputs": [
        {
          "name": "_value",
          "type": "uint256"
        },
        {
          "name": "_tag",
          "type": "bytes32"
        },
        {
          "name": "_tournamentID",
          "type": "uint256"
        },
        {
          "name": "_roundID",
          "type": "uint256"
        },
        {
          "name": "_confidence",
          "type": "uint256"
        }
      ],
      "name": "stake",
      "outputs": [
        {
          "name": "ok",
          "type": "bool"
        }
      ],
      "payable": false,
      "stateMutability": "nonpayable",
      "type": "function"
    },
    {
      "constant": false,
      "inputs": [
        {
          "name": "_staker",
          "type": "address"
        },
        {
          "name": "_value",
          "type": "uint256"
        },
        {
          "name": "_tag",
          "type": "bytes32"
        },
        {
          "name": "_tournamentID",
          "type": "uint256"
        },
        {
          "name": "_roundID",
          "type": "uint256"
        },
        {
          "name": "_confidence",
          "type": "uint256"
        }
      ],
      "name": "stakeOnBehalf",
      "outputs": [
        {
          "name": "ok",
          "type": "bool"
        }
      ],
      "payable": false,
      "stateMutability": "nonpayable",
      "type": "function"
    },
    {
      "constant": false,
      "inputs": [
        {
          "name": "_staker",
          "type": "address"
        },
        {
          "name": "_tag",
          "type": "bytes32"
        },
        {
          "name": "_etherValue",
          "type": "uint256"
        },
        {
          "name": "_tournamentID",
          "type": "uint256"
        },
        {
          "name": "_roundID",
          "type": "uint256"
        },
        {
          "name": "_successful",
          "type": "bool"
        }
      ],
      "name": "releaseStake",
      "outputs": [
        {
          "name": "ok",
          "type": "bool"
        }
      ],
      "payable": false,
      "stateMutability": "nonpayable",
      "type": "function"
    },
    {
      "constant": false,
      "inputs": [
        {
          "name": "_staker",
          "type": "address"
        },
        {
          "name": "_tag",
          "type": "bytes32"
        },
        {
          "name": "_tournamentID",
          "type": "uint256"
        },
        {
          "name": "_roundID",
          "type": "uint256"
        }
      ],
      "name": "destroyStake",
      "outputs": [
        {
          "name": "ok",
          "type": "bool"
        }
      ],
      "payable": false,
      "stateMutability": "nonpayable",
      "type": "function"
    },
    {
      "constant": false,
      "inputs": [
        {
          "name": "_to",
          "type": "address"
        },
        {
          "name": "_value",
          "type": "uint256"
        }
      ],
      "name": "numeraiTransfer",
      "outputs": [
        {
          "name": "ok",
          "type": "bool"
        }
      ],
      "payable": false,
      "stateMutability": "nonpayable",
      "type": "function"
    },
    {
      "constant": false,
      "inputs": [
        {
          "name": "_from",
          "type": "address"
        },
        {
          "name": "_to",
          "type": "address"
        },
        {
          "name": "_value",
          "type": "uint256"
        }
      ],
      "name": "withdraw",
      "outputs": [
        {
          "name": "ok",
          "type": "bool"
        }
      ],
      "payable": false,
      "stateMutability": "nonpayable",
      "type": "function"
    },
    {
      "constant": false,
      "inputs": [
        {
          "name": "_tournamentID",
          "type": "uint256"
        }
      ],
      "name": "createTournament",
      "outputs": [
        {
          "name": "ok",
          "type": "bool"
        }
      ],
      "payable": false,
      "stateMutability": "nonpayable",
      "type": "function"
    },
    {
      "constant": false,
      "inputs": [
        {
          "name": "_tournamentID",
          "type": "uint256"
        },
        {
          "name": "_roundID",
          "type": "uint256"
        },
        {
          "name": "_endTime",
          "type": "uint256"
        },
        {
          "name": "_resolutionTime",
          "type": "uint256"
        }
      ],
      "name": "createRound",
      "outputs": [
        {
          "name": "ok",
          "type": "bool"
        }
      ],
      "payable": false,
      "stateMutability": "nonpayable",
      "type": "function"
    },
    {
      "constant": true,
      "inputs": [
        {
          "name": "_tournamentID",
          "type": "uint256"
        }
      ],
      "name": "getTournament",
      "outputs": [
        {
          "name": "",
          "type": "uint256"
        },
        {
          "name": "",
          "type": "uint256[]"
        }
      ],
      "payable": false,
      "stateMutability": "view",
      "type": "function"
    },
    {
      "constant": true,
      "inputs": [
        {
          "name": "_tournamentID",
          "type": "uint256"
        },
        {
          "name": "_roundID",
          "type": "uint256"
        }
      ],
      "name": "getRound",
      "outputs": [
        {
          "name": "",
          "type": "uint256"
        },
        {
          "name": "",
          "type": "uint256"
        },
        {
          "name": "",
          "type": "uint256"
        }
      ],
      "payable": false,
      "stateMutability": "view",
      "type": "function"
    },
    {
      "constant": true,
      "inputs": [
        {
          "name": "_tournamentID",
          "type": "uint256"
        },
        {
          "name": "_roundID",
          "type": "uint256"
        },
        {
          "name": "_staker",
          "type": "address"
        },
        {
          "name": "_tag",
          "type": "bytes32"
        }
      ],
      "name": "getStake",
      "outputs": [
        {
          "name": "",
          "type": "uint256"
        },
        {
          "name": "",
          "type": "uint256"
        },
        {
          "name": "",
          "type": "bool"
        },
        {
          "name": "",
          "type": "bool"
        }
      ],
      "payable": false,
      "stateMutability": "view",
      "type": "function"
    },
    {
      "constant": false,
      "inputs": [
        {
          "name": "_from",
          "type": "address"
        },
        {
          "name": "_to",
          "type": "address"
        },
        {
          "name": "_value",
          "type": "uint256"
        }
      ],
      "name": "transferFrom",
      "outputs": [
        {
          "name": "ok",
          "type": "bool"
        }
      ],
      "payable": false,
      "stateMutability": "nonpayable",
      "type": "function"
    },
    {
      "constant": false,
      "inputs": [
        {
          "name": "_to",
          "type": "address"
        },
        {
          "name": "_value",
          "type": "uint256"
        }
      ],
      "name": "transfer",
      "outputs": [
        {
          "name": "ok",
          "type": "bool"
        }
      ],
      "payable": false,
      "stateMutability": "nonpayable",
      "type": "function"
    },
    {
      "constant": false,
      "inputs": [
        {
          "name": "_spender",
          "type": "address"
        },
        {
          "name": "_value",
          "type": "uint256"
        }
      ],
      "name": "approve",
      "outputs": [
        {
          "name": "ok",
          "type": "bool"
        }
      ],
      "payable": false,
      "stateMutability": "nonpayable",
      "type": "function"
    },
    {
      "constant": false,
      "inputs": [
        {
          "name": "_spender",
          "type": "address"
        },
        {
          "name": "_oldValue",
          "type": "uint256"
        },
        {
          "name": "_newValue",
          "type": "uint256"
        }
      ],
      "name": "changeApproval",
      "outputs": [
        {
          "name": "ok",
          "type": "bool"
        }
      ],
      "payable": false,
      "stateMutability": "nonpayable",
      "type": "function"
    }
  ],
  "bytecode": "0x60806040523061010460006101000a81548173ffffffffffffffffffffffffffffffffffffffff021916908373ffffffffffffffffffffffffffffffffffffffff160217905550600161010460156101000a81548160ff0219169083151502179055503061010560006101000a81548173ffffffffffffffffffffffffffffffffffffffff021916908373ffffffffffffffffffffffffffffffffffffffff1602179055506a115eec47f6cf7e350000006101065569145c82ac800328189d8961010755600161010f60146101000a81548160ff0219169083151502179055506040805190810160405280600581526020017f455243323000000000000000000000000000000000000000000000000000000081525061011190805190602001906200012d929190620003e8565b506040805190810160405280600681526020017f52696f626974000000000000000000000000000000000000000000000000000081525061011290805190602001906200017c929190620003e8565b506040805190810160405280600381526020017f52425400000000000000000000000000000000000000000000000000000000008152506101139080519060200190620001cb929190620003e8565b50601261011455348015620001df57600080fd5b5060405162003e8738038062003e8783398101806040528101908080518201929190602001805190602001909291908051906020019092919050505082828181600033600180610100811015156200023357fe5b0160006101000a81548173ffffffffffffffffffffffffffffffffffffffff021916908373ffffffffffffffffffffffffffffffffffffffff160217905550600161010160003373ffffffffffffffffffffffffffffffffffffffff1673ffffffffffffffffffffffffffffffffffffffff16815260200190815260200160002081905550600090505b82518110156200039f578281815181101515620002d657fe5b9060200190602002015160018260020161010081101515620002f457fe5b0160006101000a81548173ffffffffffffffffffffffffffffffffffffffff021916908373ffffffffffffffffffffffffffffffffffffffff16021790555080600201610101600085848151811015156200034b57fe5b9060200190602002015173ffffffffffffffffffffffffffffffffffffffff1673ffffffffffffffffffffffffffffffffffffffff16815260200190815260200160002081905550806001019050620002bd565b6101006000541115620003b157600080fd5b816000819055505050505050600061010b81905550600061010a819055508061010881905550426101098190555050505062000497565b828054600181600116156101000203166002900490600052602060002090601f016020900481019282601f106200042b57805160ff19168380011785556200045c565b828001600101855582156200045c579182015b828111156200045b5782518255916020019190600101906200043e565b5b5090506200046b91906200046f565b5090565b6200049491905b808211156200049057600081600090555060010162000476565b5090565b90565b6139e080620004a76000396000f300608060405260043610610246576000357c0100000000000000000000000000000000000000000000000000000000900463ffffffff16806306fdde0314610248578063095ea7b3146102d857806318160ddd1461033d5780631a5bd7fc1461036857806323b872dd146103f157806329684907146104765780632f54bf6e146104cd578063313ce5671461052857806339ec68a3146105535780633c2b0725146105ac5780635a3b7e42146106035780635bc91b2f146106935780635c251cbf146106f657806363a599a41461078957806363ff195d146107a057806370a08231146108315780637503e1b71461088857806375f12b21146108c9578063788023ff146108f857806378b150bd146109685780637c8d56b81461099757806386d1a69f146109fc578063887ccc8214610a135780638b1d67f914610aa95780638b93d3fc14610ad45780639281cd6514610b4557806395d89b4114610bb45780639e20afdf14610c44578063a0712d6814610c6f578063a425b75214610cb4578063a5d8cdf214610d31578063a8fa14b014610d5c578063a9059cbb14610d8b578063b75c7dc614610df0578063bb4872de14610e21578063be17be5d14610e50578063c2cf732614610e7b578063c41a360a14610ee4578063d08b89f314610f51578063d9caed1214610f68578063dc8452cd14610fed578063dd20a53e14611018578063dd62ed3e1461105d578063df8de3e7146110d4578063e38296e414611117578063eaac77ea14611172578063f698bceb1461119d578063fbd2dbad146111c8575b005b34801561025457600080fd5b5061025d611235565b6040518080602001828103825283818151815260200191508051906020019080838360005b8381101561029d578082015181840152602081019050610282565b50505050905090810190601f1680156102ca5780820380516001836020036101000a031916815260200191505b509250505060405180910390f35b3480156102e457600080fd5b50610323600480360381019080803573ffffffffffffffffffffffffffffffffffffffff169060200190929190803590602001909291905050506112d4565b604051808215151515815260200191505060405180910390f35b34801561034957600080fd5b5061035261148e565b6040518082815260200191505060405180910390f35b34801561037457600080fd5b5061039360048036038101908080359060200190929190505050611495565b6040518083815260200180602001828103825283818151815260200191508051906020019060200280838360005b838110156103dc5780820151818401526020810190506103c1565b50505050905001935050505060405180910390f35b3480156103fd57600080fd5b5061045c600480360381019080803573ffffffffffffffffffffffffffffffffffffffff169060200190929190803573ffffffffffffffffffffffffffffffffffffffff16906020019092919080359060200190929190505050611516565b604051808215151515815260200191505060405180910390f35b34801561048257600080fd5b5061048b611927565b604051808273ffffffffffffffffffffffffffffffffffffffff1673ffffffffffffffffffffffffffffffffffffffff16815260200191505060405180910390f35b3480156104d957600080fd5b5061050e600480360381019080803573ffffffffffffffffffffffffffffffffffffffff16906020019092919050505061194e565b604051808215151515815260200191505060405180910390f35b34801561053457600080fd5b5061053d61199a565b6040518082815260200191505060405180910390f35b34801561055f57600080fd5b5061058860048036038101908080359060200190929190803590602001909291905050506119a1565b60405180848152602001838152602001828152602001935050505060405180910390f35b3480156105b857600080fd5b506105c16119ee565b604051808273ffffffffffffffffffffffffffffffffffffffff1673ffffffffffffffffffffffffffffffffffffffff16815260200191505060405180910390f35b34801561060f57600080fd5b50610618611a15565b6040518080602001828103825283818151815260200191508051906020019080838360005b8381101561065857808201518184015260208101905061063d565b50505050905090810190601f1680156106855780820380516001836020036101000a031916815260200191505b509250505060405180910390f35b34801561069f57600080fd5b506106dc60048036038101908080359060200190929190803590602001909291908035906020019092919080359060200190929190505050611ab4565b604051808215151515815260200191505060405180910390f35b34801561070257600080fd5b5061076f600480360381019080803573ffffffffffffffffffffffffffffffffffffffff1690602001909291908035600019169060200190929190803590602001909291908035906020019092919080359060200190929190803515159060200190929190505050611bd7565b604051808215151515815260200191505060405180910390f35b34801561079557600080fd5b5061079e611d74565b005b3480156107ac57600080fd5b50610817600480360381019080803573ffffffffffffffffffffffffffffffffffffffff169060200190929190803590602001909291908035600019169060200190929190803590602001909291908035906020019092919080359060200190929190505050611dba565b604051808215151515815260200191505060405180910390f35b34801561083d57600080fd5b50610872600480360381019080803573ffffffffffffffffffffffffffffffffffffffff169060200190929190505050611f53565b6040518082815260200191505060405180910390f35b34801561089457600080fd5b506108b360048036038101908080359060200190929190505050611f6c565b6040518082815260200191505060405180910390f35b3480156108d557600080fd5b506108de611f8b565b604051808215151515815260200191505060405180910390f35b34801561090457600080fd5b506109666004803603810190808035906020019082018035906020019080806020026020016040519081016040528093929190818152602001838360200280828437820191505050505050919291929080359060200190929190505050611f9f565b005b34801561097457600080fd5b5061097d6120cd565b604051808215151515815260200191505060405180910390f35b3480156109a357600080fd5b506109e2600480360381019080803573ffffffffffffffffffffffffffffffffffffffff169060200190929190803590602001909291905050506120e1565b604051808215151515815260200191505060405180910390f35b348015610a0857600080fd5b50610a11612210565b005b348015610a1f57600080fd5b50610a766004803603810190808035906020019092919080359060200190929190803573ffffffffffffffffffffffffffffffffffffffff1690602001909291908035600019169060200190929190505050612275565b60405180858152602001848152602001831515151581526020018215151515815260200194505050505060405180910390f35b348015610ab557600080fd5b50610abe6123a4565b6040518082815260200191505060405180910390f35b348015610ae057600080fd5b50610b2b6004803603810190808035906020019092919080356000191690602001909291908035906020019092919080359060200190929190803590602001909291905050506123ab565b604051808215151515815260200191505060405180910390f35b348015610b5157600080fd5b50610b9a600480360381019080803573ffffffffffffffffffffffffffffffffffffffff16906020019092919080359060200190929190803590602001909291905050506124f7565b604051808215151515815260200191505060405180910390f35b348015610bc057600080fd5b50610bc96126a6565b6040518080602001828103825283818151815260200191508051906020019080838360005b83811015610c09578082015181840152602081019050610bee565b50505050905090810190601f168015610c365780820380516001836020036101000a031916815260200191505b509250505060405180910390f35b348015610c5057600080fd5b50610c59612745565b6040518082815260200191505060405180910390f35b348015610c7b57600080fd5b50610c9a6004803603810190808035906020019092919050505061274c565b604051808215151515815260200191505060405180910390f35b348015610cc057600080fd5b50610d17600480360381019080803573ffffffffffffffffffffffffffffffffffffffff16906020019092919080356000191690602001909291908035906020019092919080359060200190929190505050612846565b604051808215151515815260200191505060405180910390f35b348015610d3d57600080fd5b50610d466129cc565b6040518082815260200191505060405180910390f35b348015610d6857600080fd5b50610d716129d3565b604051808215151515815260200191505060405180910390f35b348015610d9757600080fd5b50610dd6600480360381019080803573ffffffffffffffffffffffffffffffffffffffff16906020019092919080359060200190929190505050612a3a565b604051808215151515815260200191505060405180910390f35b348015610dfc57600080fd5b50610e1f6004803603810190808035600019169060200190929190505050612c46565b005b348015610e2d57600080fd5b50610e36612d70565b604051808215151515815260200191505060405180910390f35b348015610e5c57600080fd5b50610e65612d84565b6040518082815260200191505060405180910390f35b348015610e8757600080fd5b50610eca6004803603810190808035600019169060200190929190803573ffffffffffffffffffffffffffffffffffffffff169060200190929190505050612d8b565b604051808215151515815260200191505060405180910390f35b348015610ef057600080fd5b50610f0f60048036038101908080359060200190929190505050612e21565b604051808273ffffffffffffffffffffffffffffffffffffffff1673ffffffffffffffffffffffffffffffffffffffff16815260200191505060405180910390f35b348015610f5d57600080fd5b50610f66612e5e565b005b348015610f7457600080fd5b50610fd3600480360381019080803573ffffffffffffffffffffffffffffffffffffffff169060200190929190803573ffffffffffffffffffffffffffffffffffffffff16906020019092919080359060200190929190505050612eaa565b604051808215151515815260200191505060405180910390f35b348015610ff957600080fd5b50611002613034565b6040518082815260200191505060405180910390f35b34801561102457600080fd5b506110436004803603810190808035906020019092919050505061303a565b604051808215151515815260200191505060405180910390f35b34801561106957600080fd5b506110be600480360381019080803573ffffffffffffffffffffffffffffffffffffffff169060200190929190803573ffffffffffffffffffffffffffffffffffffffff16906020019092919050505061311c565b6040518082815260200191505060405180910390f35b3480156110e057600080fd5b50611115600480360381019080803573ffffffffffffffffffffffffffffffffffffffff169060200190929190505050613142565b005b34801561112357600080fd5b50611158600480360381019080803573ffffffffffffffffffffffffffffffffffffffff1690602001909291905050506133f1565b604051808215151515815260200191505060405180910390f35b34801561117e57600080fd5b50611187613630565b6040518082815260200191505060405180910390f35b3480156111a957600080fd5b506111b2613637565b6040518082815260200191505060405180910390f35b3480156111d457600080fd5b506111f36004803603810190808035906020019092919050505061367d565b604051808273ffffffffffffffffffffffffffffffffffffffff1673ffffffffffffffffffffffffffffffffffffffff16815260200191505060405180910390f35b6101128054600181600116156101000203166002900480601f0160208091040260200160405190810160405280929190818152602001828054600181600116156101000203166002900480156112cc5780601f106112a1576101008083540402835291602001916112cc565b820191906000526020600020905b8154815290600101906020018083116112af57829003601f168201915b505050505081565b600061010460149054906101000a900460ff16151561148857600260046020820201600036905014151561130457fe5b60008314806113905750600061010d60003373ffffffffffffffffffffffffffffffffffffffff1673ffffffffffffffffffffffffffffffffffffffff16815260200190815260200160002060008673ffffffffffffffffffffffffffffffffffffffff1673ffffffffffffffffffffffffffffffffffffffff16815260200190815260200160002054145b151561139b57600080fd5b8261010d60003373ffffffffffffffffffffffffffffffffffffffff1673ffffffffffffffffffffffffffffffffffffffff16815260200190815260200160002060008673ffffffffffffffffffffffffffffffffffffffff1673ffffffffffffffffffffffffffffffffffffffff168152602001908152602001600020819055508373ffffffffffffffffffffffffffffffffffffffff163373ffffffffffffffffffffffffffffffffffffffff167f8c5be1e5ebec7d5bd14f71427d1e84f3dd0314c0f7b2291e5b200ac8c7c3b925856040518082815260200191505060405180910390a360019150505b92915050565b61010b5481565b60006060600061010e600085815260200190815260200160002090508060000154816001018080548060200260200160405190810160405280929190818152602001828054801561150557602002820191906000526020600020905b8154815260200190600101908083116114f1575b505050505090509250925050915091565b600061010460149054906101000a900460ff16151561192057600360046020820201600036905014151561154657fe5b61154f8561194e565b1580156115ab575061010560009054906101000a900473ffffffffffffffffffffffffffffffffffffffff1673ffffffffffffffffffffffffffffffffffffffff168573ffffffffffffffffffffffffffffffffffffffff1614155b15156115b657600080fd5b8261010c60008773ffffffffffffffffffffffffffffffffffffffff1673ffffffffffffffffffffffffffffffffffffffff168152602001908152602001600020541015151561160557600080fd5b8261010d60008773ffffffffffffffffffffffffffffffffffffffff1673ffffffffffffffffffffffffffffffffffffffff16815260200190815260200160002060003373ffffffffffffffffffffffffffffffffffffffff1673ffffffffffffffffffffffffffffffffffffffff168152602001908152602001600020541015151561169157600080fd5b6116db61010c60008773ffffffffffffffffffffffffffffffffffffffff1673ffffffffffffffffffffffffffffffffffffffff16815260200190815260200160002054846136bc565b61010c60008773ffffffffffffffffffffffffffffffffffffffff1673ffffffffffffffffffffffffffffffffffffffff168152602001908152602001600020819055506117a661010d60008773ffffffffffffffffffffffffffffffffffffffff1673ffffffffffffffffffffffffffffffffffffffff16815260200190815260200160002060003373ffffffffffffffffffffffffffffffffffffffff1673ffffffffffffffffffffffffffffffffffffffff16815260200190815260200160002054846136bc565b61010d60008773ffffffffffffffffffffffffffffffffffffffff1673ffffffffffffffffffffffffffffffffffffffff16815260200190815260200160002060003373ffffffffffffffffffffffffffffffffffffffff1673ffffffffffffffffffffffffffffffffffffffff1681526020019081526020016000208190555061187161010c60008673ffffffffffffffffffffffffffffffffffffffff1673ffffffffffffffffffffffffffffffffffffffff16815260200190815260200160002054846136e6565b61010c60008673ffffffffffffffffffffffffffffffffffffffff1673ffffffffffffffffffffffffffffffffffffffff168152602001908152602001600020819055508373ffffffffffffffffffffffffffffffffffffffff168573ffffffffffffffffffffffffffffffffffffffff167fddf252ad1be2c89b69c2b068fc378daa952ba7f163c4a11628f55a4df523b3ef856040518082815260200191505060405180910390a360019150505b9392505050565b61010560009054906101000a900473ffffffffffffffffffffffffffffffffffffffff1681565b60008061010160008473ffffffffffffffffffffffffffffffffffffffff1673ffffffffffffffffffffffffffffffffffffffff16815260200190815260200160002054119050919050565b6101145481565b60008060008061010e600087815260200190815260200160002060020160008681526020019081526020016000209050806000015481600101548260020154935093509350509250925092565b61010f60009054906101000a900473ffffffffffffffffffffffffffffffffffffffff1681565b6101118054600181600116156101000203166002900480601f016020809104026020016040519081016040528092919081815260200182805460018160011615610100020316600290048015611aac5780601f10611a8157610100808354040283529160200191611aac565b820191906000526020600020905b815481529060010190602001808311611a8f57829003601f168201915b505050505081565b600061010f60009054906101000a900473ffffffffffffffffffffffffffffffffffffffff1673ffffffffffffffffffffffffffffffffffffffff1660405180807f637265617465526f756e642875696e743235362c75696e743235362c75696e7481526020017f3235362c75696e74323536290000000000000000000000000000000000000000815250602c01905060405180910390207c01000000000000000000000000000000000000000000000000000000009004868686866040518563ffffffff167c010000000000000000000000000000000000000000000000000000000002815260040180858152602001848152602001838152602001828152602001945050505050600060405180830381865af4925050509050949350505050565b600061010460149054906101000a900460ff161515611d6a576006600460208202016000369050141515611c0757fe5b61010f60009054906101000a900473ffffffffffffffffffffffffffffffffffffffff1673ffffffffffffffffffffffffffffffffffffffff1660405180807f72656c656173655374616b6528616464726573732c627974657333322c75696e81526020017f743235362c75696e743235362c75696e743235362c626f6f6c29000000000000815250603a01905060405180910390207c010000000000000000000000000000000000000000000000000000000090048989898989896040518763ffffffff167c0100000000000000000000000000000000000000000000000000000000028152600401808773ffffffffffffffffffffffffffffffffffffffff1673ffffffffffffffffffffffffffffffffffffffff1681526020018660001916600019168152602001858152602001848152602001838152602001821515151581526020019650505050505050600060405180830381865af4925050509150505b9695505050505050565b611d7d3361194e565b15611db85761010460159054906101000a900460ff161515611d9b57fe5b600161010460146101000a81548160ff0219169083151502179055505b565b600061010460149054906101000a900460ff161515611f49576006600460208202016000369050141515611dea57fe5b61010f60009054906101000a900473ffffffffffffffffffffffffffffffffffffffff1673ffffffffffffffffffffffffffffffffffffffff1660405180807f7374616b654f6e426568616c6628616464726573732c75696e743235362c627981526020017f74657333322c75696e743235362c75696e743235362c75696e74323536290000815250603e01905060405180910390207c010000000000000000000000000000000000000000000000000000000090048989898989896040518763ffffffff167c0100000000000000000000000000000000000000000000000000000000028152600401808773ffffffffffffffffffffffffffffffffffffffff1673ffffffffffffffffffffffffffffffffffffffff16815260200186815260200185600019166000191681526020018481526020018381526020018281526020019650505050505050600060405180830381865af4925050509150505b9695505050505050565b61010c6020528060005260406000206000915090505481565b61010e6020528060005260406000206000915090508060000154905081565b61010460149054906101000a900460ff1681565b60008036604051808383808284378201915050925050506040518091039020611fc781613710565b156120c757600091505b83518210156120ae578382815181101515611fe857fe5b906020019060200201516001836001016101008110151561200557fe5b0160006101000a81548173ffffffffffffffffffffffffffffffffffffffff021916908373ffffffffffffffffffffffffffffffffffffffff160217905550816001016101016000868581518110151561205b57fe5b9060200190602002015173ffffffffffffffffffffffffffffffffffffffff1673ffffffffffffffffffffffffffffffffffffffff16815260200190815260200160002081905550816001019150611fd1565b61010060005411156120bf57600080fd5b826000819055505b50505050565b61010f60149054906101000a900460ff1681565b600060026004602082020160003690501415156120fa57fe5b61010f60009054906101000a900473ffffffffffffffffffffffffffffffffffffffff1673ffffffffffffffffffffffffffffffffffffffff1660405180807f6e756d657261695472616e7366657228616464726573732c75696e7432353629815250602001905060405180910390207c0100000000000000000000000000000000000000000000000000000000900485856040518363ffffffff167c0100000000000000000000000000000000000000000000000000000000028152600401808373ffffffffffffffffffffffffffffffffffffffff1673ffffffffffffffffffffffffffffffffffffffff16815260200182815260200192505050600060405180830381865af49250505091505092915050565b60003660405180838380828437820191505092505050604051809103902061223781613710565b156122725761010460159054906101000a900460ff16151561225557fe5b600061010460146101000a81548160ff0219169083151502179055505b50565b600080600080600061010e60008a8152602001908152602001600020600201600089815260200190815260200160002060030160008873ffffffffffffffffffffffffffffffffffffffff1673ffffffffffffffffffffffffffffffffffffffff1681526020019081526020016000206000876000191660001916815260200190815260200160002090508060000160109054906101000a90046fffffffffffffffffffffffffffffffff168160000160009054906101000a90046fffffffffffffffffffffffffffffffff168260010160009054906101000a900460ff168360010160019054906101000a900460ff16836fffffffffffffffffffffffffffffffff169350826fffffffffffffffffffffffffffffffff169250945094509450945050945094509450949050565b6101085481565b600061010460149054906101000a900460ff1615156124ee5761010f60009054906101000a900473ffffffffffffffffffffffffffffffffffffffff1673ffffffffffffffffffffffffffffffffffffffff1660405180807f7374616b652875696e743235362c627974657333322c75696e743235362c756981526020017f6e743235362c75696e7432353629000000000000000000000000000000000000815250602e01905060405180910390207c0100000000000000000000000000000000000000000000000000000000900487878787876040518663ffffffff167c010000000000000000000000000000000000000000000000000000000002815260040180868152602001856000191660001916815260200184815260200183815260200182815260200195505050505050600060405180830381865af49250505090505b95945050505050565b600061010460149054906101000a900460ff16151561269f57600360046020820201600036905014151561252757fe5b8361010d60003373ffffffffffffffffffffffffffffffffffffffff1673ffffffffffffffffffffffffffffffffffffffff16815260200190815260200160002060008773ffffffffffffffffffffffffffffffffffffffff1673ffffffffffffffffffffffffffffffffffffffff168152602001908152602001600020541415156125b257600080fd5b8261010d60003373ffffffffffffffffffffffffffffffffffffffff1673ffffffffffffffffffffffffffffffffffffffff16815260200190815260200160002060008773ffffffffffffffffffffffffffffffffffffffff1673ffffffffffffffffffffffffffffffffffffffff168152602001908152602001600020819055508473ffffffffffffffffffffffffffffffffffffffff163373ffffffffffffffffffffffffffffffffffffffff167f8c5be1e5ebec7d5bd14f71427d1e84f3dd0314c0f7b2291e5b200ac8c7c3b925856040518082815260200191505060405180910390a360019150505b9392505050565b6101138054600181600116156101000203166002900480601f01602080910402602001604051908101604052809291908181526020018280546001816001161561010002031660029004801561273d5780601f106127125761010080835404028352916020019161273d565b820191906000526020600020905b81548152906001019060200180831161272057829003601f168201915b505050505081565b6101075481565b600061010460149054906101000a900460ff1615156128415761010f60009054906101000a900473ffffffffffffffffffffffffffffffffffffffff1673ffffffffffffffffffffffffffffffffffffffff1660405180807f6d696e742875696e743235362900000000000000000000000000000000000000815250600d01905060405180910390207c01000000000000000000000000000000000000000000000000000000009004836040518263ffffffff167c010000000000000000000000000000000000000000000000000000000002815260040180828152602001915050600060405180830381865af49250505090505b919050565b600061010460149054906101000a900460ff1615156129c4576004806020820201600036905014151561287557fe5b61010f60009054906101000a900473ffffffffffffffffffffffffffffffffffffffff1673ffffffffffffffffffffffffffffffffffffffff1660405180807f64657374726f795374616b6528616464726573732c627974657333322c75696e81526020017f743235362c75696e743235362900000000000000000000000000000000000000815250602d01905060405180910390207c01000000000000000000000000000000000000000000000000000000009004878787876040518563ffffffff167c0100000000000000000000000000000000000000000000000000000000028152600401808573ffffffffffffffffffffffffffffffffffffffff1673ffffffffffffffffffffffffffffffffffffffff1681526020018460001916600019168152602001838152602001828152602001945050505050600060405180830381865af4925050509150505b949350505050565b6101095481565b600080366040518083838082843782019150509250505060405180910390206129fb81613710565b15612a365761010f60149054906101000a900460ff161515612a1957fe5b600061010f60146101000a81548160ff0219169083151502179055505b5090565b600061010460149054906101000a900460ff161515612c40576002600460208202016000369050141515612a6a57fe5b8261010c60003373ffffffffffffffffffffffffffffffffffffffff1673ffffffffffffffffffffffffffffffffffffffff1681526020019081526020016000205410151515612ab957600080fd5b612b0361010c60003373ffffffffffffffffffffffffffffffffffffffff1673ffffffffffffffffffffffffffffffffffffffff16815260200190815260200160002054846136bc565b61010c60003373ffffffffffffffffffffffffffffffffffffffff1673ffffffffffffffffffffffffffffffffffffffff16815260200190815260200160002081905550612b9161010c60008673ffffffffffffffffffffffffffffffffffffffff1673ffffffffffffffffffffffffffffffffffffffff16815260200190815260200160002054846136e6565b61010c60008673ffffffffffffffffffffffffffffffffffffffff1673ffffffffffffffffffffffffffffffffffffffff168152602001908152602001600020819055508373ffffffffffffffffffffffffffffffffffffffff163373ffffffffffffffffffffffffffffffffffffffff167fddf252ad1be2c89b69c2b068fc378daa952ba7f163c4a11628f55a4df523b3ef856040518082815260200191505060405180910390a360019150505b92915050565b600080600061010160003373ffffffffffffffffffffffffffffffffffffffff1673ffffffffffffffffffffffffffffffffffffffff1681526020019081526020016000205492506000831415612c9c57612d6a565b8260020a91506101026000856000191660001916815260200190815260200160002090506000828260010154161115612d695780600001600081548092919060010191905055508181600101600082825403925050819055507fc7fb647e59b18047309aa15aad418e5d7ca96d173ad704f1031a2c3d7591734b3385604051808373ffffffffffffffffffffffffffffffffffffffff1673ffffffffffffffffffffffffffffffffffffffff16815260200182600019166000191681526020019250505060405180910390a15b5b50505050565b61010460159054906101000a900460ff1681565b61010a5481565b60008060008061010260008760001916600019168152602001908152602001600020925061010160008673ffffffffffffffffffffffffffffffffffffffff1673ffffffffffffffffffffffffffffffffffffffff1681526020019081526020016000205491506000821415612e045760009350612e18565b8160020a9050600081846001015416141593505b50505092915050565b6000600180830161010081101515612e3557fe5b0160009054906101000a900473ffffffffffffffffffffffffffffffffffffffff169050919050565b600036604051808383808284378201915050925050506040518091039020612e8581613710565b15612ea757600061010460156101000a81548160ff0219169083151502179055505b50565b60006003600460208202016000369050141515612ec357fe5b61010f60009054906101000a900473ffffffffffffffffffffffffffffffffffffffff1673ffffffffffffffffffffffffffffffffffffffff1660405180807f776974686472617728616464726573732c616464726573732c75696e7432353681526020017f2900000000000000000000000000000000000000000000000000000000000000815250602101905060405180910390207c010000000000000000000000000000000000000000000000000000000090048686866040518463ffffffff167c0100000000000000000000000000000000000000000000000000000000028152600401808473ffffffffffffffffffffffffffffffffffffffff1673ffffffffffffffffffffffffffffffffffffffff1681526020018373ffffffffffffffffffffffffffffffffffffffff1673ffffffffffffffffffffffffffffffffffffffff1681526020018281526020019350505050600060405180830381865af4925050509150509392505050565b60005481565b600061010f60009054906101000a900473ffffffffffffffffffffffffffffffffffffffff1673ffffffffffffffffffffffffffffffffffffffff1660405180807f637265617465546f75726e616d656e742875696e743235362900000000000000815250601901905060405180910390207c01000000000000000000000000000000000000000000000000000000009004836040518263ffffffff167c010000000000000000000000000000000000000000000000000000000002815260040180828152602001915050600060405180830381865af4925050509050919050565b61010d602052816000526040600020602052806000526040600020600091509150505481565b60008061314e3361194e565b156133ec5761010560009054906101000a900473ffffffffffffffffffffffffffffffffffffffff1673ffffffffffffffffffffffffffffffffffffffff168373ffffffffffffffffffffffffffffffffffffffff16141515156131ae57fe5b60008373ffffffffffffffffffffffffffffffffffffffff161415613230573373ffffffffffffffffffffffffffffffffffffffff166108fc3073ffffffffffffffffffffffffffffffffffffffff16319081150290604051600060405180830381858888f1935050505015801561322a573d6000803e3d6000fd5b506133eb565b8291508173ffffffffffffffffffffffffffffffffffffffff166370a08231306040518263ffffffff167c0100000000000000000000000000000000000000000000000000000000028152600401808273ffffffffffffffffffffffffffffffffffffffff1673ffffffffffffffffffffffffffffffffffffffff168152602001915050602060405180830381600087803b1580156132ce57600080fd5b505af11580156132e2573d6000803e3d6000fd5b505050506040513d60208110156132f857600080fd5b810190808051906020019092919050505090508173ffffffffffffffffffffffffffffffffffffffff1663a9059cbb33836040518363ffffffff167c0100000000000000000000000000000000000000000000000000000000028152600401808373ffffffffffffffffffffffffffffffffffffffff1673ffffffffffffffffffffffffffffffffffffffff16815260200182815260200192505050602060405180830381600087803b1580156133ae57600080fd5b505af11580156133c2573d6000803e3d6000fd5b505050506040513d60208110156133d857600080fd5b8101908080519060200190929190505050505b5b505050565b60008060003660405180838380828437820191505092505050604051809103902061341b81613710565b156136295761010f60149054906101000a900460ff16151561343957fe5b61010f60009054906101000a900473ffffffffffffffffffffffffffffffffffffffff1673ffffffffffffffffffffffffffffffffffffffff168473ffffffffffffffffffffffffffffffffffffffff161415156136235761011061010f60009054906101000a900473ffffffffffffffffffffffffffffffffffffffff1690806001815401808255809150509060018203906000526020600020016000909192909190916101000a81548173ffffffffffffffffffffffffffffffffffffffff021916908373ffffffffffffffffffffffffffffffffffffffff1602179055505061010f60009054906101000a900473ffffffffffffffffffffffffffffffffffffffff1691508361010f60006101000a81548173ffffffffffffffffffffffffffffffffffffffff021916908373ffffffffffffffffffffffffffffffffffffffff1602179055507fef9fc1dee6010109e6e3b21e51d44028e246dbad8a5a71ea192a30b19e1f457f8285604051808373ffffffffffffffffffffffffffffffffffffffff1673ffffffffffffffffffffffffffffffffffffffff1681526020018273ffffffffffffffffffffffffffffffffffffffff1673ffffffffffffffffffffffffffffffffffffffff1681526020019250505060405180910390a160019250613628565b600092505b5b5050919050565b6101065481565b600061367861366f6101085462093a806136606101075461365b42610109546136bc565b613930565b81151561366957fe5b046136e6565b61010a546136bc565b905090565b6101108181548110151561368d57fe5b906000526020600020016000915054906101000a900473ffffffffffffffffffffffffffffffffffffffff1681565b60008082840390508383111580156136d45750838111155b15156136dc57fe5b8091505092915050565b60008082840190508381101580156136fe5750828110155b151561370657fe5b8091505092915050565b60008060008061010160003373ffffffffffffffffffffffffffffffffffffffff1673ffffffffffffffffffffffffffffffffffffffff168152602001908152602001600020549250600083141561376757613928565b6101026000866000191660001916815260200190815260200160002091506000826000015414156137ec5760005482600001819055506000826001018190555061010380548091906001016137bc9190613963565b82600201819055508461010383600201548154811015156137d957fe5b9060005260206000200181600019169055505b8260020a90506000818360010154161415613927577fe1c52dc63b719ade82e8bea94cc41a0d5d28e4aaf536adb5e9cccc9ff8c1aeda3386604051808373ffffffffffffffffffffffffffffffffffffffff1673ffffffffffffffffffffffffffffffffffffffff16815260200182600019166000191681526020019250505060405180910390a1600182600001541115156138ff5761010361010260008760001916600019168152602001908152602001600020600201548154811015156138b157fe5b90600052602060002001600090556101026000866000191660001916815260200190815260200160002060008082016000905560018201600090556002820160009055505060019350613928565b8160000160008154809291906001900391905055508082600101600082825417925050819055505b5b505050919050565b60008082840290506000841480613951575082848281151561394e57fe5b04145b151561395957fe5b8091505092915050565b81548183558181111561398a57818360005260206000209182019101613989919061398f565b5b505050565b6139b191905b808211156139ad576000816000905550600101613995565b5090565b905600a165627a7a7230582091a19c6e9335f2b598d2e79785c2243692769f8d5f418df3a75328d95f93f5080029",
  "source": "pragma solidity ^0.4.11;\n\n// This is the contract that will be unchangeable once deployed.  It will call delegate functions in another contract to change state.  The delegate contract is upgradable.\n\nimport \"contracts/StoppableShareable.sol\";\nimport \"contracts/RiobitShared.sol\";\n\ncontract RiobitBackend is StoppableShareable, RiobitShared {\n\n    address public delegateContract;\n    bool public contractUpgradable = true;\n    address[] public previousDelegates;\n\n    string public standard = \"ERC20\";\n\n    // ERC20 requires name, symbol, and decimals\n    string public name = \"Riobit\";\n    string public symbol = \"RBT\";\n    uint256 public decimals = 18;\n\n    event DelegateChanged(address oldAddress, address newAddress);\n\n    function RiobitBackend(address[] _owners, uint256 _num_required, uint256 _initial_disbursement) StoppableShareable(_owners, _num_required) {\n        totalSupply = 0;\n        total_minted = 0;\n\n        initial_disbursement = _initial_disbursement;\n        deploy_time = block.timestamp;\n    }\n\n    function disableContractUpgradability() onlyManyOwners(sha3(msg.data)) returns (bool) {\n        assert(contractUpgradable);\n        contractUpgradable = false;\n    }\n\n    function changeDelegate(address _newDelegate) onlyManyOwners(sha3(msg.data)) returns (bool) {\n        assert(contractUpgradable);\n\n        if (_newDelegate != delegateContract) {\n            previousDelegates.push(delegateContract);\n            var oldDelegate = delegateContract;\n            delegateContract = _newDelegate;\n            DelegateChanged(oldDelegate, _newDelegate);\n            return true;\n        }\n\n        return false;\n    }\n\n    function claimTokens(address _token) onlyOwner {\n        assert(_token != numerai);\n        if (_token == 0x0) {\n            msg.sender.transfer(this.balance);\n            return;\n        }\n\n        RiobitBackend token = RiobitBackend(_token);\n        uint256 balance = token.balanceOf(this);\n        token.transfer(msg.sender, balance);\n    }\n\n    function mint(uint256 _value) stopInEmergency returns (bool ok) {\n        return delegateContract.delegatecall(bytes4(sha3(\"mint(uint256)\")), _value);\n    }\n\n    function stake(uint256 _value, bytes32 _tag, uint256 _tournamentID, uint256 _roundID, uint256 _confidence) stopInEmergency returns (bool ok) {\n        return delegateContract.delegatecall(bytes4(sha3(\"stake(uint256,bytes32,uint256,uint256,uint256)\")), _value, _tag, _tournamentID, _roundID, _confidence);\n    }\n\n    function stakeOnBehalf(address _staker, uint256 _value, bytes32 _tag, uint256 _tournamentID, uint256 _roundID, uint256 _confidence) stopInEmergency onlyPayloadSize(6) returns (bool ok) {\n        return delegateContract.delegatecall(bytes4(sha3(\"stakeOnBehalf(address,uint256,bytes32,uint256,uint256,uint256)\")), _staker, _value, _tag, _tournamentID, _roundID, _confidence);\n    }\n\n    function releaseStake(address _staker, bytes32 _tag, uint256 _etherValue, uint256 _tournamentID, uint256 _roundID, bool _successful) stopInEmergency onlyPayloadSize(6) returns (bool ok) {\n        return delegateContract.delegatecall(bytes4(sha3(\"releaseStake(address,bytes32,uint256,uint256,uint256,bool)\")), _staker, _tag, _etherValue, _tournamentID, _roundID, _successful);\n    }\n\n    function destroyStake(address _staker, bytes32 _tag, uint256 _tournamentID, uint256 _roundID) stopInEmergency onlyPayloadSize(4) returns (bool ok) {\n        return delegateContract.delegatecall(bytes4(sha3(\"destroyStake(address,bytes32,uint256,uint256)\")), _staker, _tag, _tournamentID, _roundID);\n    }\n\n    function numeraiTransfer(address _to, uint256 _value) onlyPayloadSize(2) returns(bool ok) {\n        return delegateContract.delegatecall(bytes4(sha3(\"numeraiTransfer(address,uint256)\")), _to, _value);\n    }\n\n    function withdraw(address _from, address _to, uint256 _value) onlyPayloadSize(3) returns(bool ok) {\n        return delegateContract.delegatecall(bytes4(sha3(\"withdraw(address,address,uint256)\")), _from, _to, _value);\n    }\n\n    function createTournament(uint256 _tournamentID) returns (bool ok) {\n        return delegateContract.delegatecall(bytes4(sha3(\"createTournament(uint256)\")), _tournamentID);\n    }\n\n    function createRound(uint256 _tournamentID, uint256 _roundID, uint256 _endTime, uint256 _resolutionTime) returns (bool ok) {\n        return delegateContract.delegatecall(bytes4(sha3(\"createRound(uint256,uint256,uint256,uint256)\")), _tournamentID, _roundID, _endTime, _resolutionTime);\n    }\n\n    function getTournament(uint256 _tournamentID) constant returns (uint256, uint256[]) {\n        var tournament = tournaments[_tournamentID];\n        return (tournament.creationTime, tournament.roundIDs);\n    }\n\n    function getRound(uint256 _tournamentID, uint256 _roundID) constant returns (uint256, uint256, uint256) {\n        var round = tournaments[_tournamentID].rounds[_roundID];\n        return (round.creationTime, round.endTime, round.resolutionTime);\n    }\n\n    function getStake(uint256 _tournamentID, uint256 _roundID, address _staker, bytes32 _tag) constant returns (uint256, uint256, bool, bool) {\n        var stake = tournaments[_tournamentID].rounds[_roundID].stakes[_staker][_tag];\n        return (stake.confidence, stake.amount, stake.successful, stake.resolved);\n    }\n\n    // ERC20: Send from a contract\n    function transferFrom(address _from, address _to, uint256 _value) stopInEmergency onlyPayloadSize(3) returns (bool ok) {\n        require(!isOwner(_from) && _from != numerai); // Transfering from RBTowner can only be done with the numeraiTransfer function\n\n        // Check for sufficient funds.\n        require(balanceOf[_from] >= _value);\n        // Check for authorization to spend.\n        require(allowance[_from][msg.sender] >= _value);\n\n        balanceOf[_from] = safeSubtract(balanceOf[_from], _value);\n        allowance[_from][msg.sender] = safeSubtract(allowance[_from][msg.sender], _value);\n        balanceOf[_to] = safeAdd(balanceOf[_to], _value);\n\n        // Notify anyone listening.\n        Transfer(_from, _to, _value);\n\n        return true;\n    }\n\n    // ERC20: Anyone with NMR can transfer NMR\n    function transfer(address _to, uint256 _value) stopInEmergency onlyPayloadSize(2) returns (bool ok) {\n        // Check for sufficient funds.\n        require(balanceOf[msg.sender] >= _value);\n\n        balanceOf[msg.sender] = safeSubtract(balanceOf[msg.sender], _value);\n        balanceOf[_to] = safeAdd(balanceOf[_to], _value);\n\n        // Notify anyone listening.\n        Transfer(msg.sender, _to, _value);\n\n        return true;\n    }\n\n    // ERC20: Allow other contracts to spend on sender's behalf\n    function approve(address _spender, uint256 _value) stopInEmergency onlyPayloadSize(2) returns (bool ok) {\n        require((_value == 0) || (allowance[msg.sender][_spender] == 0));\n        allowance[msg.sender][_spender] = _value;\n        Approval(msg.sender, _spender, _value);\n        return true;\n    }\n\n    function changeApproval(address _spender, uint256 _oldValue, uint256 _newValue) stopInEmergency onlyPayloadSize(3) returns (bool ok) {\n        require(allowance[msg.sender][_spender] == _oldValue);\n        allowance[msg.sender][_spender] = _newValue;\n        Approval(msg.sender, _spender, _newValue);\n        return true;\n    }\n}\n",
  "sourcePath": "/home/leon/block/tes/rio/contracts/RiobitBackend.sol",
  "compiler": {
    "name": "solc",
    "version": "0.4.24+commit.e67f0147.Emscripten.clang"
  },
  "schemaVersion": "2.0.1",
  "updatedAt": "2018-07-19T06:37:09.675Z"
}