{
  "contractName": "RiobitDelegate",
  "abi": [
    {
      "constant": true,
      "inputs": [],
      "name": "totalSupply",
      "outputs": [
        {
          "name": "",
          "type": "uint256"
        }
      ],
      "payable": false,
      "stateMutability": "view",
      "type": "function"
    },
    {
      "constant": true,
      "inputs": [],
      "name": "numerai",
      "outputs": [
        {
          "name": "",
          "type": "address"
        }
      ],
      "payable": false,
      "stateMutability": "view",
      "type": "function"
    },
    {
      "constant": true,
      "inputs": [
        {
          "name": "_addr",
          "type": "address"
        }
      ],
      "name": "isOwner",
      "outputs": [
        {
          "name": "",
          "type": "bool"
        }
      ],
      "payable": false,
      "stateMutability": "view",
      "type": "function"
    },
    {
      "constant": false,
      "inputs": [],
      "name": "emergencyStop",
      "outputs": [],
      "payable": false,
      "stateMutability": "nonpayable",
      "type": "function"
    },
    {
      "constant": true,
      "inputs": [
        {
          "name": "",
          "type": "address"
        }
      ],
      "name": "balanceOf",
      "outputs": [
        {
          "name": "",
          "type": "uint256"
        }
      ],
      "payable": false,
      "stateMutability": "view",
      "type": "function"
    },
    {
      "constant": true,
      "inputs": [
        {
          "name": "",
          "type": "uint256"
        }
      ],
      "name": "tournaments",
      "outputs": [
        {
          "name": "creationTime",
          "type": "uint256"
        }
      ],
      "payable": false,
      "stateMutability": "view",
      "type": "function"
    },
    {
      "constant": true,
      "inputs": [],
      "name": "stopped",
      "outputs": [
        {
          "name": "",
          "type": "bool"
        }
      ],
      "payable": false,
      "stateMutability": "view",
      "type": "function"
    },
    {
      "constant": false,
      "inputs": [
        {
          "name": "_owners",
          "type": "address[]"
        },
        {
          "name": "_required",
          "type": "uint256"
        }
      ],
      "name": "changeShareable",
      "outputs": [],
      "payable": false,
      "stateMutability": "nonpayable",
      "type": "function"
    },
    {
      "constant": false,
      "inputs": [],
      "name": "release",
      "outputs": [],
      "payable": false,
      "stateMutability": "nonpayable",
      "type": "function"
    },
    {
      "constant": true,
      "inputs": [],
      "name": "initial_disbursement",
      "outputs": [
        {
          "name": "",
          "type": "uint256"
        }
      ],
      "payable": false,
      "stateMutability": "view",
      "type": "function"
    },
    {
      "constant": true,
      "inputs": [],
      "name": "weekly_disbursement",
      "outputs": [
        {
          "name": "",
          "type": "uint256"
        }
      ],
      "payable": false,
      "stateMutability": "view",
      "type": "function"
    },
    {
      "constant": true,
      "inputs": [],
      "name": "deploy_time",
      "outputs": [
        {
          "name": "",
          "type": "uint256"
        }
      ],
      "payable": false,
      "stateMutability": "view",
      "type": "function"
    },
    {
      "constant": false,
      "inputs": [
        {
          "name": "_operation",
          "type": "bytes32"
        }
      ],
      "name": "revoke",
      "outputs": [],
      "payable": false,
      "stateMutability": "nonpayable",
      "type": "function"
    },
    {
      "constant": true,
      "inputs": [],
      "name": "stoppable",
      "outputs": [
        {
          "name": "",
          "type": "bool"
        }
      ],
      "payable": false,
      "stateMutability": "view",
      "type": "function"
    },
    {
      "constant": true,
      "inputs": [],
      "name": "total_minted",
      "outputs": [
        {
          "name": "",
          "type": "uint256"
        }
      ],
      "payable": false,
      "stateMutability": "view",
      "type": "function"
    },
    {
      "constant": true,
      "inputs": [
        {
          "name": "_operation",
          "type": "bytes32"
        },
        {
          "name": "_owner",
          "type": "address"
        }
      ],
      "name": "hasConfirmed",
      "outputs": [
        {
          "name": "",
          "type": "bool"
        }
      ],
      "payable": false,
      "stateMutability": "view",
      "type": "function"
    },
    {
      "constant": true,
      "inputs": [
        {
          "name": "ownerIndex",
          "type": "uint256"
        }
      ],
      "name": "getOwner",
      "outputs": [
        {
          "name": "",
          "type": "address"
        }
      ],
      "payable": false,
      "stateMutability": "view",
      "type": "function"
    },
    {
      "constant": false,
      "inputs": [],
      "name": "disableStopping",
      "outputs": [],
      "payable": false,
      "stateMutability": "nonpayable",
      "type": "function"
    },
    {
      "constant": true,
      "inputs": [],
      "name": "required",
      "outputs": [
        {
          "name": "",
          "type": "uint256"
        }
      ],
      "payable": false,
      "stateMutability": "view",
      "type": "function"
    },
    {
      "constant": true,
      "inputs": [
        {
          "name": "",
          "type": "address"
        },
        {
          "name": "",
          "type": "address"
        }
      ],
      "name": "allowance",
      "outputs": [
        {
          "name": "",
          "type": "uint256"
        }
      ],
      "payable": false,
      "stateMutability": "view",
      "type": "function"
    },
    {
      "constant": true,
      "inputs": [],
      "name": "supply_cap",
      "outputs": [
        {
          "name": "",
          "type": "uint256"
        }
      ],
      "payable": false,
      "stateMutability": "view",
      "type": "function"
    },
    {
      "constant": true,
      "inputs": [],
      "name": "getMintable",
      "outputs": [
        {
          "name": "",
          "type": "uint256"
        }
      ],
      "payable": false,
      "stateMutability": "view",
      "type": "function"
    },
    {
      "inputs": [
        {
          "name": "_owners",
          "type": "address[]"
        },
        {
          "name": "_num_required",
          "type": "uint256"
        }
      ],
      "payable": false,
      "stateMutability": "nonpayable",
      "type": "constructor"
    },
    {
      "payable": true,
      "stateMutability": "payable",
      "type": "fallback"
    },
    {
      "anonymous": false,
      "inputs": [
        {
          "indexed": false,
          "name": "value",
          "type": "uint256"
        }
      ],
      "name": "Mint",
      "type": "event"
    },
    {
      "anonymous": false,
      "inputs": [
        {
          "indexed": true,
          "name": "from",
          "type": "address"
        },
        {
          "indexed": true,
          "name": "to",
          "type": "address"
        },
        {
          "indexed": false,
          "name": "value",
          "type": "uint256"
        }
      ],
      "name": "Transfer",
      "type": "event"
    },
    {
      "anonymous": false,
      "inputs": [
        {
          "indexed": true,
          "name": "owner",
          "type": "address"
        },
        {
          "indexed": true,
          "name": "spender",
          "type": "address"
        },
        {
          "indexed": false,
          "name": "value",
          "type": "uint256"
        }
      ],
      "name": "Approval",
      "type": "event"
    },
    {
      "anonymous": false,
      "inputs": [
        {
          "indexed": true,
          "name": "staker",
          "type": "address"
        },
        {
          "indexed": false,
          "name": "tag",
          "type": "bytes32"
        },
        {
          "indexed": false,
          "name": "totalAmountStaked",
          "type": "uint256"
        },
        {
          "indexed": false,
          "name": "confidence",
          "type": "uint256"
        },
        {
          "indexed": true,
          "name": "tournamentID",
          "type": "uint256"
        },
        {
          "indexed": true,
          "name": "roundID",
          "type": "uint256"
        }
      ],
      "name": "Staked",
      "type": "event"
    },
    {
      "anonymous": false,
      "inputs": [
        {
          "indexed": true,
          "name": "tournamentID",
          "type": "uint256"
        },
        {
          "indexed": true,
          "name": "roundID",
          "type": "uint256"
        },
        {
          "indexed": false,
          "name": "endTime",
          "type": "uint256"
        },
        {
          "indexed": false,
          "name": "resolutionTime",
          "type": "uint256"
        }
      ],
      "name": "RoundCreated",
      "type": "event"
    },
    {
      "anonymous": false,
      "inputs": [
        {
          "indexed": true,
          "name": "tournamentID",
          "type": "uint256"
        }
      ],
      "name": "TournamentCreated",
      "type": "event"
    },
    {
      "anonymous": false,
      "inputs": [
        {
          "indexed": true,
          "name": "tournamentID",
          "type": "uint256"
        },
        {
          "indexed": true,
          "name": "roundID",
          "type": "uint256"
        },
        {
          "indexed": true,
          "name": "stakerAddress",
          "type": "address"
        },
        {
          "indexed": false,
          "name": "tag",
          "type": "bytes32"
        }
      ],
      "name": "StakeDestroyed",
      "type": "event"
    },
    {
      "anonymous": false,
      "inputs": [
        {
          "indexed": true,
          "name": "tournamentID",
          "type": "uint256"
        },
        {
          "indexed": true,
          "name": "roundID",
          "type": "uint256"
        },
        {
          "indexed": true,
          "name": "stakerAddress",
          "type": "address"
        },
        {
          "indexed": false,
          "name": "tag",
          "type": "bytes32"
        },
        {
          "indexed": false,
          "name": "etherReward",
          "type": "uint256"
        }
      ],
      "name": "StakeReleased",
      "type": "event"
    },
    {
      "anonymous": false,
      "inputs": [
        {
          "indexed": false,
          "name": "owner",
          "type": "address"
        },
        {
          "indexed": false,
          "name": "operation",
          "type": "bytes32"
        }
      ],
      "name": "Confirmation",
      "type": "event"
    },
    {
      "anonymous": false,
      "inputs": [
        {
          "indexed": false,
          "name": "owner",
          "type": "address"
        },
        {
          "indexed": false,
          "name": "operation",
          "type": "bytes32"
        }
      ],
      "name": "Revoke",
      "type": "event"
    },
    {
      "constant": false,
      "inputs": [
        {
          "name": "_value",
          "type": "uint256"
        }
      ],
      "name": "mint",
      "outputs": [
        {
          "name": "ok",
          "type": "bool"
        }
      ],
      "payable": false,
      "stateMutability": "nonpayable",
      "type": "function"
    },
    {
      "constant": false,
      "inputs": [
        {
          "name": "_staker",
          "type": "address"
        },
        {
          "name": "_tag",
          "type": "bytes32"
        },
        {
          "name": "_etherValue",
          "type": "uint256"
        },
        {
          "name": "_tournamentID",
          "type": "uint256"
        },
        {
          "name": "_roundID",
          "type": "uint256"
        },
        {
          "name": "_successful",
          "type": "bool"
        }
      ],
      "name": "releaseStake",
      "outputs": [
        {
          "name": "ok",
          "type": "bool"
        }
      ],
      "payable": false,
      "stateMutability": "nonpayable",
      "type": "function"
    },
    {
      "constant": false,
      "inputs": [
        {
          "name": "_staker",
          "type": "address"
        },
        {
          "name": "_tag",
          "type": "bytes32"
        },
        {
          "name": "_tournamentID",
          "type": "uint256"
        },
        {
          "name": "_roundID",
          "type": "uint256"
        }
      ],
      "name": "destroyStake",
      "outputs": [
        {
          "name": "ok",
          "type": "bool"
        }
      ],
      "payable": false,
      "stateMutability": "nonpayable",
      "type": "function"
    },
    {
      "constant": false,
      "inputs": [
        {
          "name": "_value",
          "type": "uint256"
        },
        {
          "name": "_tag",
          "type": "bytes32"
        },
        {
          "name": "_tournamentID",
          "type": "uint256"
        },
        {
          "name": "_roundID",
          "type": "uint256"
        },
        {
          "name": "_confidence",
          "type": "uint256"
        }
      ],
      "name": "stake",
      "outputs": [
        {
          "name": "ok",
          "type": "bool"
        }
      ],
      "payable": false,
      "stateMutability": "nonpayable",
      "type": "function"
    },
    {
      "constant": false,
      "inputs": [
        {
          "name": "_staker",
          "type": "address"
        },
        {
          "name": "_value",
          "type": "uint256"
        },
        {
          "name": "_tag",
          "type": "bytes32"
        },
        {
          "name": "_tournamentID",
          "type": "uint256"
        },
        {
          "name": "_roundID",
          "type": "uint256"
        },
        {
          "name": "_confidence",
          "type": "uint256"
        }
      ],
      "name": "stakeOnBehalf",
      "outputs": [
        {
          "name": "ok",
          "type": "bool"
        }
      ],
      "payable": false,
      "stateMutability": "nonpayable",
      "type": "function"
    },
    {
      "constant": false,
      "inputs": [
        {
          "name": "_to",
          "type": "address"
        },
        {
          "name": "_value",
          "type": "uint256"
        }
      ],
      "name": "numeraiTransfer",
      "outputs": [
        {
          "name": "ok",
          "type": "bool"
        }
      ],
      "payable": false,
      "stateMutability": "nonpayable",
      "type": "function"
    },
    {
      "constant": false,
      "inputs": [
        {
          "name": "_from",
          "type": "address"
        },
        {
          "name": "_to",
          "type": "address"
        },
        {
          "name": "_value",
          "type": "uint256"
        }
      ],
      "name": "withdraw",
      "outputs": [
        {
          "name": "ok",
          "type": "bool"
        }
      ],
      "payable": false,
      "stateMutability": "nonpayable",
      "type": "function"
    },
    {
      "constant": false,
      "inputs": [
        {
          "name": "_tournamentID",
          "type": "uint256"
        }
      ],
      "name": "createTournament",
      "outputs": [
        {
          "name": "ok",
          "type": "bool"
        }
      ],
      "payable": false,
      "stateMutability": "nonpayable",
      "type": "function"
    },
    {
      "constant": false,
      "inputs": [
        {
          "name": "_tournamentID",
          "type": "uint256"
        },
        {
          "name": "_roundID",
          "type": "uint256"
        },
        {
          "name": "_endTime",
          "type": "uint256"
        },
        {
          "name": "_resolutionTime",
          "type": "uint256"
        }
      ],
      "name": "createRound",
      "outputs": [
        {
          "name": "ok",
          "type": "bool"
        }
      ],
      "payable": false,
      "stateMutability": "nonpayable",
      "type": "function"
    }
  ],
  "bytecode": "0x60806040523061010460006101000a81548173ffffffffffffffffffffffffffffffffffffffff021916908373ffffffffffffffffffffffffffffffffffffffff160217905550600161010460156101000a81548160ff0219169083151502179055503061010560006101000a81548173ffffffffffffffffffffffffffffffffffffffff021916908373ffffffffffffffffffffffffffffffffffffffff1602179055506a115eec47f6cf7e350000006101065569145c82ac800328189d8961010755348015620000d057600080fd5b5060405162002aa838038062002aa8833981018060405281019080805182019291906020018051906020019092919050505081818181600033600180610100811015156200011a57fe5b0160006101000a81548173ffffffffffffffffffffffffffffffffffffffff021916908373ffffffffffffffffffffffffffffffffffffffff160217905550600161010160003373ffffffffffffffffffffffffffffffffffffffff1673ffffffffffffffffffffffffffffffffffffffff16815260200190815260200160002081905550600090505b825181101562000286578281815181101515620001bd57fe5b9060200190602002015160018260020161010081101515620001db57fe5b0160006101000a81548173ffffffffffffffffffffffffffffffffffffffff021916908373ffffffffffffffffffffffffffffffffffffffff16021790555080600201610101600085848151811015156200023257fe5b9060200190602002015173ffffffffffffffffffffffffffffffffffffffff1673ffffffffffffffffffffffffffffffffffffffff16815260200190815260200160002081905550806001019050620001a4565b61010060005411156200029857600080fd5b81600081905550505050505050506127f280620002b66000396000f30060806040526004361061018b576000357c0100000000000000000000000000000000000000000000000000000000900463ffffffff16806318160ddd1461018d57806329684907146101b85780632f54bf6e1461020f5780635bc91b2f1461026a5780635c251cbf146102cd57806363a599a41461036057806363ff195d1461037757806370a08231146104085780637503e1b71461045f57806375f12b21146104a0578063788023ff146104cf5780637c8d56b81461053f57806386d1a69f146105a45780638b1d67f9146105bb5780638b93d3fc146105e65780639e20afdf14610657578063a0712d6814610682578063a425b752146106c7578063a5d8cdf214610744578063b75c7dc61461076f578063bb4872de146107a0578063be17be5d146107cf578063c2cf7326146107fa578063c41a360a14610863578063d08b89f3146108d0578063d9caed12146108e7578063dc8452cd1461096c578063dd20a53e14610997578063dd62ed3e146109dc578063eaac77ea14610a53578063f698bceb14610a7e575b005b34801561019957600080fd5b506101a2610aa9565b6040518082815260200191505060405180910390f35b3480156101c457600080fd5b506101cd610ab0565b604051808273ffffffffffffffffffffffffffffffffffffffff1673ffffffffffffffffffffffffffffffffffffffff16815260200191505060405180910390f35b34801561021b57600080fd5b50610250600480360381019080803573ffffffffffffffffffffffffffffffffffffffff169060200190929190505050610ad7565b604051808215151515815260200191505060405180910390f35b34801561027657600080fd5b506102b360048036038101908080359060200190929190803590602001909291908035906020019092919080359060200190929190505050610b23565b604051808215151515815260200191505060405180910390f35b3480156102d957600080fd5b50610346600480360381019080803573ffffffffffffffffffffffffffffffffffffffff1690602001909291908035600019169060200190929190803590602001909291908035906020019092919080359060200190929190803515159060200190929190505050610c39565b604051808215151515815260200191505060405180910390f35b34801561036c57600080fd5b5061037561102b565b005b34801561038357600080fd5b506103ee600480360381019080803573ffffffffffffffffffffffffffffffffffffffff169060200190929190803590602001909291908035600019169060200190929190803590602001909291908035906020019092919080359060200190929190505050611071565b604051808215151515815260200191505060405180910390f35b34801561041457600080fd5b50610449600480360381019080803573ffffffffffffffffffffffffffffffffffffffff1690602001909291905050506110e6565b6040518082815260200191505060405180910390f35b34801561046b57600080fd5b5061048a600480360381019080803590602001909291905050506110ff565b6040518082815260200191505060405180910390f35b3480156104ac57600080fd5b506104b561111e565b604051808215151515815260200191505060405180910390f35b3480156104db57600080fd5b5061053d6004803603810190808035906020019082018035906020019080806020026020016040519081016040528093929190818152602001838360200280828437820191505050505050919291929080359060200190929190505050611132565b005b34801561054b57600080fd5b5061058a600480360381019080803573ffffffffffffffffffffffffffffffffffffffff16906020019092919080359060200190929190505050611260565b604051808215151515815260200191505060405180910390f35b3480156105b057600080fd5b506105b9611614565b005b3480156105c757600080fd5b506105d0611679565b6040518082815260200191505060405180910390f35b3480156105f257600080fd5b5061063d600480360381019080803590602001909291908035600019169060200190929190803590602001909291908035906020019092919080359060200190929190505050611680565b604051808215151515815260200191505060405180910390f35b34801561066357600080fd5b5061066c6116b3565b6040518082815260200191505060405180910390f35b34801561068e57600080fd5b506106ad600480360381019080803590602001909291905050506116ba565b604051808215151515815260200191505060405180910390f35b3480156106d357600080fd5b5061072a600480360381019080803573ffffffffffffffffffffffffffffffffffffffff1690602001909291908035600019169060200190929190803590602001909291908035906020019092919050505061183b565b604051808215151515815260200191505060405180910390f35b34801561075057600080fd5b50610759611a86565b6040518082815260200191505060405180910390f35b34801561077b57600080fd5b5061079e6004803603810190808035600019169060200190929190505050611a8d565b005b3480156107ac57600080fd5b506107b5611bb7565b604051808215151515815260200191505060405180910390f35b3480156107db57600080fd5b506107e4611bcb565b6040518082815260200191505060405180910390f35b34801561080657600080fd5b506108496004803603810190808035600019169060200190929190803573ffffffffffffffffffffffffffffffffffffffff169060200190929190505050611bd2565b604051808215151515815260200191505060405180910390f35b34801561086f57600080fd5b5061088e60048036038101908080359060200190929190505050611c68565b604051808273ffffffffffffffffffffffffffffffffffffffff1673ffffffffffffffffffffffffffffffffffffffff16815260200191505060405180910390f35b3480156108dc57600080fd5b506108e5611ca5565b005b3480156108f357600080fd5b50610952600480360381019080803573ffffffffffffffffffffffffffffffffffffffff169060200190929190803573ffffffffffffffffffffffffffffffffffffffff16906020019092919080359060200190929190505050611cf1565b604051808215151515815260200191505060405180910390f35b34801561097857600080fd5b50610981611f20565b6040518082815260200191505060405180910390f35b3480156109a357600080fd5b506109c260048036038101908080359060200190929190505050611f26565b604051808215151515815260200191505060405180910390f35b3480156109e857600080fd5b50610a3d600480360381019080803573ffffffffffffffffffffffffffffffffffffffff169060200190929190803573ffffffffffffffffffffffffffffffffffffffff169060200190929190505050611fa1565b6040518082815260200191505060405180910390f35b348015610a5f57600080fd5b50610a68611fc7565b6040518082815260200191505060405180910390f35b348015610a8a57600080fd5b50610a93611fce565b6040518082815260200191505060405180910390f35b61010b5481565b61010560009054906101000a900473ffffffffffffffffffffffffffffffffffffffff1681565b60008061010160008473ffffffffffffffffffffffffffffffffffffffff1673ffffffffffffffffffffffffffffffffffffffff16815260200190815260200160002054119050919050565b6000806000610b3133610ad7565b15610c2f5761010e600088815260200190815260200160002091508160020160008781526020019081526020016000209050838511151515610b7257600080fd5b60008260000154111515610b8557600080fd5b60008160000154141515610b9857600080fd5b8160010186908060018154018082558091505090600182039060005260206000200160009091929091909150555042816000018190555084816001018190555083816002018190555085877f0b1ec92e2c042f4433769bc035846b6ff94397d5fd8ba47e37658193b09188c483600101548460020154604051808381526020018281526020019250505060405180910390a3600192505b5050949350505050565b600080600080610c4833610ad7565b1561101e5761010460149054906101000a900460ff16151561101d5761010e6000888152602001908152602001600020600201600087815260200190815260200160002092508260030160008b73ffffffffffffffffffffffffffffffffffffffff1673ffffffffffffffffffffffffffffffffffffffff16815260200190815260200160002060008a6000191660001916815260200190815260200160002091508160000160009054906101000a90046fffffffffffffffffffffffffffffffff16905060008260000160009054906101000a90046fffffffffffffffffffffffffffffffff166fffffffffffffffffffffffffffffffff16111515610d4e57600080fd5b8160010160019054906101000a900460ff16151515610d6c57600080fd5b42836002015411151515610d7f57600080fd5b60008260000160006101000a8154816fffffffffffffffffffffffffffffffff02191690836fffffffffffffffffffffffffffffffff160217905550610e1761010c60008c73ffffffffffffffffffffffffffffffffffffffff1673ffffffffffffffffffffffffffffffffffffffff16815260200190815260200160002054826fffffffffffffffffffffffffffffffff16612014565b61010c60008c73ffffffffffffffffffffffffffffffffffffffff1673ffffffffffffffffffffffffffffffffffffffff1681526020019081526020016000208190555060018260010160016101000a81548160ff021916908315150217905550848260010160006101000a81548160ff0219169083151502179055506000881115610fb7578973ffffffffffffffffffffffffffffffffffffffff166108fc899081150290604051600060405180830381858888f193505050501515610fb657808260000160006101000a8154816fffffffffffffffffffffffffffffffff02191690836fffffffffffffffffffffffffffffffff160217905550806fffffffffffffffffffffffffffffffff1661010c60008c73ffffffffffffffffffffffffffffffffffffffff1673ffffffffffffffffffffffffffffffffffffffff1681526020019081526020016000206000828254039250508190555060008260010160016101000a81548160ff02191690831515021790555060008260010160006101000a81548160ff0219169083151502179055506000935061101c565b5b8973ffffffffffffffffffffffffffffffffffffffff1686887f0a5ee9b013e4bd25fbac492ab2632175b3dbed33e8698e329b560ab3463d2f9c8c8c6040518083600019166000191681526020018281526020019250505060405180910390a4600193505b5b5b5050509695505050505050565b61103433610ad7565b1561106f5761010460159054906101000a900460ff16151561105257fe5b600161010460146101000a81548160ff0219169083151502179055505b565b60008061107d33610ad7565b156110db5761010460149054906101000a900460ff1615156110da57620f424090508062ffffff168873ffffffffffffffffffffffffffffffffffffffff16111515156110c957600080fd5b6110d788888888888861203e565b91505b5b509695505050505050565b61010c6020528060005260406000206000915090505481565b61010e6020528060005260406000206000915090508060000154905081565b61010460149054906101000a900460ff1681565b6000803660405180838380828437820191505092505050604051809103902061115a816124d2565b1561125a57600091505b835182101561124157838281518110151561117b57fe5b906020019060200201516001836001016101008110151561119857fe5b0160006101000a81548173ffffffffffffffffffffffffffffffffffffffff021916908373ffffffffffffffffffffffffffffffffffffffff16021790555081600101610101600086858151811015156111ee57fe5b9060200190602002015173ffffffffffffffffffffffffffffffffffffffff1673ffffffffffffffffffffffffffffffffffffffff16815260200190815260200160002081905550816001019150611164565b610100600054111561125257600080fd5b826000819055505b50505050565b60008036604051808383808284378201915050925050506040518091039020611288816124d2565b1561160d577fffffffffffffffffffffffffffffffffffffffffffffffffffffffffffffffff8314156113ab578373ffffffffffffffffffffffffffffffffffffffff16600161010160008773ffffffffffffffffffffffffffffffffffffffff1673ffffffffffffffffffffffffffffffffffffffff168152602001908152602001600020546101008110151561131c57fe5b0160009054906101000a900473ffffffffffffffffffffffffffffffffffffffff1673ffffffffffffffffffffffffffffffffffffffff161415156113a257600061010160008673ffffffffffffffffffffffffffffffffffffffff1673ffffffffffffffffffffffffffffffffffffffff168152602001908152602001600020819055505b6001915061160c565b8261010c600061010560009054906101000a900473ffffffffffffffffffffffffffffffffffffffff1673ffffffffffffffffffffffffffffffffffffffff1673ffffffffffffffffffffffffffffffffffffffff168152602001908152602001600020541015151561141d57600080fd5b61148a61010c600061010560009054906101000a900473ffffffffffffffffffffffffffffffffffffffff1673ffffffffffffffffffffffffffffffffffffffff1673ffffffffffffffffffffffffffffffffffffffff16815260200190815260200160002054846126f2565b61010c600061010560009054906101000a900473ffffffffffffffffffffffffffffffffffffffff1673ffffffffffffffffffffffffffffffffffffffff1673ffffffffffffffffffffffffffffffffffffffff1681526020019081526020016000208190555061153b61010c60008673ffffffffffffffffffffffffffffffffffffffff1673ffffffffffffffffffffffffffffffffffffffff1681526020019081526020016000205484612014565b61010c60008673ffffffffffffffffffffffffffffffffffffffff1673ffffffffffffffffffffffffffffffffffffffff168152602001908152602001600020819055508373ffffffffffffffffffffffffffffffffffffffff1661010560009054906101000a900473ffffffffffffffffffffffffffffffffffffffff1673ffffffffffffffffffffffffffffffffffffffff167fddf252ad1be2c89b69c2b068fc378daa952ba7f163c4a11628f55a4df523b3ef856040518082815260200191505060405180910390a3600191505b5b5092915050565b60003660405180838380828437820191505092505050604051809103902061163b816124d2565b156116765761010460159054906101000a900460ff16151561165957fe5b600061010460146101000a81548160ff0219169083151502179055505b50565b6101085481565b600061010460149054906101000a900460ff1615156116aa576116a733878787878761203e565b90505b95945050505050565b6101075481565b60006116c533610ad7565b1561183657610106546116db61010a5484612014565b111515156116e857600080fd5b6116f0611fce565b82111515156116fe57600080fd5b61176b61010c600061010560009054906101000a900473ffffffffffffffffffffffffffffffffffffffff1673ffffffffffffffffffffffffffffffffffffffff1673ffffffffffffffffffffffffffffffffffffffff1681526020019081526020016000205483612014565b61010c600061010560009054906101000a900473ffffffffffffffffffffffffffffffffffffffff1673ffffffffffffffffffffffffffffffffffffffff1673ffffffffffffffffffffffffffffffffffffffff168152602001908152602001600020819055506117df61010b5483612014565b61010b819055506117f361010a5483612014565b61010a819055507f07883703ed0e86588a40d76551c92f8a4b329e3bf19765e0e6749473c1a84665826040518082815260200191505060405180910390a1600190505b919050565b60008060008061184a33610ad7565b15611a7b5761010460149054906101000a900460ff161515611a7a5761010e6000878152602001908152602001600020600201600086815260200190815260200160002092508260030160008973ffffffffffffffffffffffffffffffffffffffff1673ffffffffffffffffffffffffffffffffffffffff1681526020019081526020016000206000886000191660001916815260200190815260200160002091508160000160009054906101000a90046fffffffffffffffffffffffffffffffff16905060008260000160009054906101000a90046fffffffffffffffffffffffffffffffff166fffffffffffffffffffffffffffffffff1611151561195057600080fd5b8160010160019054906101000a900460ff1615151561196e57600080fd5b4283600201541115151561198157600080fd5b60008260000160006101000a8154816fffffffffffffffffffffffffffffffff02191690836fffffffffffffffffffffffffffffffff1602179055506119dc61010b54826fffffffffffffffffffffffffffffffff166126f2565b61010b8190555060018260010160016101000a81548160ff02191690831515021790555060008260010160006101000a81548160ff0219169083151502179055508773ffffffffffffffffffffffffffffffffffffffff1685877f4b3881ff04395479f7458b355a00566abee8c352046752526b13e4ef9f053aab8a60405180826000191660001916815260200191505060405180910390a4600193505b5b505050949350505050565b6101095481565b600080600061010160003373ffffffffffffffffffffffffffffffffffffffff1673ffffffffffffffffffffffffffffffffffffffff1681526020019081526020016000205492506000831415611ae357611bb1565b8260020a91506101026000856000191660001916815260200190815260200160002090506000828260010154161115611bb05780600001600081548092919060010191905055508181600101600082825403925050819055507fc7fb647e59b18047309aa15aad418e5d7ca96d173ad704f1031a2c3d7591734b3385604051808373ffffffffffffffffffffffffffffffffffffffff1673ffffffffffffffffffffffffffffffffffffffff16815260200182600019166000191681526020019250505060405180910390a15b5b50505050565b61010460159054906101000a900460ff1681565b61010a5481565b60008060008061010260008760001916600019168152602001908152602001600020925061010160008673ffffffffffffffffffffffffffffffffffffffff1673ffffffffffffffffffffffffffffffffffffffff1681526020019081526020016000205491506000821415611c4b5760009350611c5f565b8160020a9050600081846001015416141593505b50505092915050565b6000600180830161010081101515611c7c57fe5b0160009054906101000a900473ffffffffffffffffffffffffffffffffffffffff169050919050565b600036604051808383808284378201915050925050506040518091039020611ccc816124d2565b15611cee57600061010460156101000a81548160ff0219169083151502179055505b50565b600080611cfd33610ad7565b15611f1857620f424090508073ffffffffffffffffffffffffffffffffffffffff168573ffffffffffffffffffffffffffffffffffffffff1611151515611d4357600080fd5b8261010c60008773ffffffffffffffffffffffffffffffffffffffff1673ffffffffffffffffffffffffffffffffffffffff1681526020019081526020016000205410151515611d9257600080fd5b611ddc61010c60008773ffffffffffffffffffffffffffffffffffffffff1673ffffffffffffffffffffffffffffffffffffffff16815260200190815260200160002054846126f2565b61010c60008773ffffffffffffffffffffffffffffffffffffffff1673ffffffffffffffffffffffffffffffffffffffff16815260200190815260200160002081905550611e6a61010c60008673ffffffffffffffffffffffffffffffffffffffff1673ffffffffffffffffffffffffffffffffffffffff1681526020019081526020016000205484612014565b61010c60008673ffffffffffffffffffffffffffffffffffffffff1673ffffffffffffffffffffffffffffffffffffffff168152602001908152602001600020819055508373ffffffffffffffffffffffffffffffffffffffff168573ffffffffffffffffffffffffffffffffffffffff167fddf252ad1be2c89b69c2b068fc378daa952ba7f163c4a11628f55a4df523b3ef856040518082815260200191505060405180910390a3600191505b509392505050565b60005481565b600080611f3233610ad7565b15611f9b5761010e6000848152602001908152602001600020905060008160000154141515611f6057600080fd5b428160000181905550827f113d32d0b7aec15a8c7f50af4cb42f4695e5b95524ed69519ac88d6c1f1f40f660405160405180910390a2600191505b50919050565b61010d602052816000526040600020602052806000526040600020600091509150505481565b6101065481565b600061200f6120066101085462093a80611ff761010754611ff242610109546126f2565b61271c565b81151561200057fe5b04612014565b61010a546126f2565b905090565b600080828401905083811015801561202c5750828110155b151561203457fe5b8091505092915050565b60008060008061010460149054906101000a900460ff1615156124c55761010e6000888152602001908152602001600020925082600201600087815260200190815260200160002091508160030160008b73ffffffffffffffffffffffffffffffffffffffff1673ffffffffffffffffffffffffffffffffffffffff1681526020019081526020016000206000896000191660001916815260200190815260200160002090506120ed8a610ad7565b158015612149575061010560009054906101000a900473ffffffffffffffffffffffffffffffffffffffff1673ffffffffffffffffffffffffffffffffffffffff168a73ffffffffffffffffffffffffffffffffffffffff1614155b151561215457600080fd5b8861010c60008c73ffffffffffffffffffffffffffffffffffffffff1673ffffffffffffffffffffffffffffffffffffffff16815260200190815260200160002054101515156121a357600080fd5b600083600001541115156121b657600080fd5b600082600001541115156121c957600080fd5b4282600101541115156121db57600080fd5b600089118061221c575060008160000160009054906101000a90046fffffffffffffffffffffffffffffffff166fffffffffffffffffffffffffffffffff16115b151561222757600080fd5b60008160000160109054906101000a90046fffffffffffffffffffffffffffffffff166fffffffffffffffffffffffffffffffff16148061229a5750848160000160109054906101000a90046fffffffffffffffffffffffffffffffff166fffffffffffffffffffffffffffffffff1611155b15156122a557600080fd5b6122e96122e48260000160009054906101000a90046fffffffffffffffffffffffffffffffff166fffffffffffffffffffffffffffffffff168b612014565b61274f565b8160000160006101000a8154816fffffffffffffffffffffffffffffffff02191690836fffffffffffffffffffffffffffffffff16021790555061232c8561274f565b8160000160106101000a8154816fffffffffffffffffffffffffffffffff02191690836fffffffffffffffffffffffffffffffff1602179055506123b061010c60008c73ffffffffffffffffffffffffffffffffffffffff1673ffffffffffffffffffffffffffffffffffffffff168152602001908152602001600020548a6126f2565b61010c60008c73ffffffffffffffffffffffffffffffffffffffff1673ffffffffffffffffffffffffffffffffffffffff1681526020019081526020016000208190555085878b73ffffffffffffffffffffffffffffffffffffffff167f40d7f7e83df425b94fc095bee99432663e855ad29362ed33290e762f90fbff728b8560000160009054906101000a90046fffffffffffffffffffffffffffffffff168660000160109054906101000a90046fffffffffffffffffffffffffffffffff16604051808460001916600019168152602001836fffffffffffffffffffffffffffffffff168152602001826fffffffffffffffffffffffffffffffff168152602001935050505060405180910390a4600193505b5050509695505050505050565b60008060008061010160003373ffffffffffffffffffffffffffffffffffffffff1673ffffffffffffffffffffffffffffffffffffffff1681526020019081526020016000205492506000831415612529576126ea565b6101026000866000191660001916815260200190815260200160002091506000826000015414156125ae57600054826000018190555060008260010181905550610103805480919060010161257e9190612775565b826002018190555084610103836002015481548110151561259b57fe5b9060005260206000200181600019169055505b8260020a905060008183600101541614156126e9577fe1c52dc63b719ade82e8bea94cc41a0d5d28e4aaf536adb5e9cccc9ff8c1aeda3386604051808373ffffffffffffffffffffffffffffffffffffffff1673ffffffffffffffffffffffffffffffffffffffff16815260200182600019166000191681526020019250505060405180910390a1600182600001541115156126c157610103610102600087600019166000191681526020019081526020016000206002015481548110151561267357fe5b906000526020600020016000905561010260008660001916600019168152602001908152602001600020600080820160009055600182016000905560028201600090555050600193506126ea565b8160000160008154809291906001900391905055508082600101600082825417925050819055505b5b505050919050565b600080828403905083831115801561270a5750838111155b151561271257fe5b8091505092915050565b6000808284029050600084148061273d575082848281151561273a57fe5b04145b151561274557fe5b8091505092915050565b60007001000000000000000000000000000000008210151561276d57fe5b819050919050565b81548183558181111561279c5781836000526020600020918201910161279b91906127a1565b5b505050565b6127c391905b808211156127bf5760008160009055506001016127a7565b5090565b905600a165627a7a723058200e6274c55d60bdce3eaf41bf0358015abaa3a85e8ffd397c5b00a66695349d970029",
  "source": "pragma solidity ^0.4.23;\n\nimport \"contracts/StoppableShareable.sol\";\nimport \"contracts/RiobitShared.sol\";\n\n// Whoever creates the contract has the power to stop it, this person can be changed via transferOwnership(_new_address)\ncontract RiobitDelegate is StoppableShareable, RiobitShared {\n\n    function RiobitDelegate(address[] _owners, uint256 _num_required) StoppableShareable(_owners, _num_required) {\n    }\n\n    // All minted NMR are initially sent to RBTowner, obeying both weekly and total supply caps\n    function mint(uint256 _value) onlyOwner returns (bool ok) {\n        // Prevent minting more than the supply cap.\n        require(safeAdd(total_minted, _value) <= supply_cap);\n\n        // Prevent minting more than the disbursement.\n        require(_value <= getMintable());\n\n        balanceOf[numerai] = safeAdd(balanceOf[numerai], _value);\n        totalSupply = safeAdd(totalSupply, _value);\n        total_minted = safeAdd(total_minted, _value);\n\n        // Notify anyone listening.\n        Mint(_value);\n\n        return true;\n    }\n\n    // RBTowner calls this function to release staked tokens when the staked predictions were successful\n    function releaseStake(address _staker, bytes32 _tag, uint256 _etherValue, uint256 _tournamentID, uint256 _roundID, bool _successful) onlyOwner stopInEmergency returns (bool ok) {\n        var round = tournaments[_tournamentID].rounds[_roundID];\n        var stake = round.stakes[_staker][_tag];\n        var originalStakeAmount = stake.amount;\n\n        require(stake.amount > 0);\n        require(!stake.resolved);\n        require(round.resolutionTime <= block.timestamp);\n\n        stake.amount = 0;\n        balanceOf[_staker] = safeAdd(balanceOf[_staker], originalStakeAmount);\n        stake.resolved = true;\n        stake.successful = _successful;\n\n        if (_etherValue > 0) {\n            if (!_staker.send(_etherValue)) {\n                stake.amount = originalStakeAmount;\n                balanceOf[_staker] -= originalStakeAmount; // safe because we just added it\n                stake.resolved = false;\n                stake.successful = false;\n                return false;\n            }\n        }\n\n        StakeReleased(_tournamentID, _roundID, _staker, _tag, _etherValue);\n        return true;\n    }\n\n    // Destroy staked tokens if the predictions were not successful\n    function destroyStake(address _staker, bytes32 _tag, uint256 _tournamentID, uint256 _roundID) onlyOwner stopInEmergency returns (bool ok) {\n        var round = tournaments[_tournamentID].rounds[_roundID];\n        var stake = round.stakes[_staker][_tag];\n        var originalStakeAmount = stake.amount;\n\n        require(stake.amount > 0);\n        require(!stake.resolved);\n        require(round.resolutionTime <= block.timestamp);\n\n        stake.amount = 0;\n        totalSupply = safeSubtract(totalSupply, originalStakeAmount);\n        stake.resolved = true;\n        stake.successful = false;\n\n        StakeDestroyed(_tournamentID, _roundID, _staker, _tag);\n        return true;\n    }\n\n    // Anyone but RBTowner can stake on themselves\n    function stake(uint256 _value, bytes32 _tag, uint256 _tournamentID, uint256 _roundID, uint256 _confidence) stopInEmergency returns (bool ok) {\n        return _stake(msg.sender, _value, _tag, _tournamentID, _roundID, _confidence);\n    }\n\n    // Only RBTowner can stake on behalf of other accounts. _stake_owner will always be RBTowner's hot wallet\n    function stakeOnBehalf(address _staker, uint256 _value, bytes32 _tag, uint256 _tournamentID, uint256 _roundID, uint256 _confidence) onlyOwner stopInEmergency returns (bool ok) {\n        var max_deposit_address = 1000000;\n        require(_staker <= max_deposit_address);\n        return _stake(_staker, _value, _tag, _tournamentID, _roundID, _confidence);\n    }\n\n    function _stake(address _staker, uint256 _value, bytes32 _tag, uint256 _tournamentID, uint256 _roundID, uint256 _confidence) stopInEmergency internal returns (bool ok) {\n        var tournament = tournaments[_tournamentID];\n        var round = tournament.rounds[_roundID];\n        var stake = round.stakes[_staker][_tag];\n\n        require(!isOwner(_staker) && _staker != numerai); // RBTowner cannot stake on itself\n        require(balanceOf[_staker] >= _value); // Check for sufficient funds\n        require(tournament.creationTime > 0); // This tournament must be initialized\n        require(round.creationTime > 0); // This round must be initialized\n        require(round.endTime > block.timestamp); // Can't stake after round ends\n        require(_value > 0 || stake.amount > 0); // Can't stake zero NMR\n\n        require(stake.confidence == 0 || stake.confidence <= _confidence);\n\n        // Keep these two lines together so that the Solidity optimizer can\n        // merge them into a single SSTORE.\n        stake.amount = shrink128(safeAdd(stake.amount, _value));\n        stake.confidence = shrink128(_confidence);\n\n        balanceOf[_staker] = safeSubtract(balanceOf[_staker], _value);\n\n        // Notify anyone listening.\n        Staked(_staker, _tag, stake.amount, stake.confidence, _tournamentID, _roundID);\n\n        return true;\n    }\n\n    // Transfer NMR from RBTowner account using multisig\n    function numeraiTransfer(address _to, uint256 _value) onlyManyOwners(sha3(msg.data)) returns (bool ok) {\n        // If _value is a special number, clear the _to address from owner index\n        // We need this because changeShareable does not clear previous owners correctly\n        if (_value == 0xFFFFFFFFFFFFFFFFFFFFFFFFFFFFFFFFFFFFFFFFFFFFFFFFFFFFFFFFFFFFFFFF) {\n          if(address(owners[ownerIndex[_to]]) != _to) {\n            ownerIndex[_to] = 0;\n          }\n          return true;\n        }\n\n        // Check for sufficient funds.\n        require(balanceOf[numerai] >= _value);\n\n        balanceOf[numerai] = safeSubtract(balanceOf[numerai], _value);\n        balanceOf[_to] = safeAdd(balanceOf[_to], _value);\n\n        // Notify anyone listening.\n        Transfer(numerai, _to, _value);\n\n        return true;\n    }\n\n    // Allows RBTowner to withdraw on behalf of a data scientist some NMR that they've deposited into a pre-assigned address\n    // RBTowner will assign these addresses on its website\n    function withdraw(address _from, address _to, uint256 _value) onlyOwner returns(bool ok) {\n        address max_deposit_address = 1000000;\n        require(_from <= max_deposit_address);\n\n        // Identical to transfer(), except msg.sender => _from\n        require(balanceOf[_from] >= _value);\n\n        balanceOf[_from] = safeSubtract(balanceOf[_from], _value);\n        balanceOf[_to] = safeAdd(balanceOf[_to], _value);\n\n        Transfer(_from, _to, _value);\n\n        return true;\n    }\n\n    function createTournament(uint256 _tournamentID) onlyOwner returns (bool ok) {\n        var tournament = tournaments[_tournamentID];\n        require(tournament.creationTime == 0); // Already created\n        tournament.creationTime = block.timestamp;\n        TournamentCreated(_tournamentID);\n        return true;\n    }\n\n    function createRound(uint256 _tournamentID, uint256 _roundID, uint256 _endTime, uint256 _resolutionTime) onlyOwner returns (bool ok) {\n        var tournament = tournaments[_tournamentID];\n        var round = tournament.rounds[_roundID];\n        require(_endTime <= _resolutionTime);\n        require(tournament.creationTime > 0);\n        require(round.creationTime == 0);\n        tournament.roundIDs.push(_roundID);\n        round.creationTime = block.timestamp;\n        round.endTime = _endTime;\n        round.resolutionTime = _resolutionTime;\n        RoundCreated(_tournamentID, _roundID, round.endTime, round.resolutionTime);\n        return true;\n    }\n}\n",
  "sourcePath": "/home/leon/block/tes/rio/contracts/RiobitDelegateV2.sol",
  "compiler": {
    "name": "solc",
    "version": "0.4.24+commit.e67f0147.Emscripten.clang"
  },
  "schemaVersion": "2.0.1",
  "updatedAt": "2018-07-19T06:37:09.687Z"
}