{
  "contractName": "Shareable",
  "abi": [
    {
      "constant": true,
      "inputs": [],
      "name": "required",
      "outputs": [
        {
          "name": "",
          "type": "uint256"
        }
      ],
      "payable": false,
      "stateMutability": "view",
      "type": "function"
    },
    {
      "inputs": [
        {
          "name": "_owners",
          "type": "address[]"
        },
        {
          "name": "_required",
          "type": "uint256"
        }
      ],
      "payable": false,
      "stateMutability": "nonpayable",
      "type": "constructor"
    },
    {
      "anonymous": false,
      "inputs": [
        {
          "indexed": false,
          "name": "owner",
          "type": "address"
        },
        {
          "indexed": false,
          "name": "operation",
          "type": "bytes32"
        }
      ],
      "name": "Confirmation",
      "type": "event"
    },
    {
      "anonymous": false,
      "inputs": [
        {
          "indexed": false,
          "name": "owner",
          "type": "address"
        },
        {
          "indexed": false,
          "name": "operation",
          "type": "bytes32"
        }
      ],
      "name": "Revoke",
      "type": "event"
    },
    {
      "constant": false,
      "inputs": [
        {
          "name": "_owners",
          "type": "address[]"
        },
        {
          "name": "_required",
          "type": "uint256"
        }
      ],
      "name": "changeShareable",
      "outputs": [],
      "payable": false,
      "stateMutability": "nonpayable",
      "type": "function"
    },
    {
      "constant": false,
      "inputs": [
        {
          "name": "_operation",
          "type": "bytes32"
        }
      ],
      "name": "revoke",
      "outputs": [],
      "payable": false,
      "stateMutability": "nonpayable",
      "type": "function"
    },
    {
      "constant": true,
      "inputs": [
        {
          "name": "ownerIndex",
          "type": "uint256"
        }
      ],
      "name": "getOwner",
      "outputs": [
        {
          "name": "",
          "type": "address"
        }
      ],
      "payable": false,
      "stateMutability": "view",
      "type": "function"
    },
    {
      "constant": true,
      "inputs": [
        {
          "name": "_addr",
          "type": "address"
        }
      ],
      "name": "isOwner",
      "outputs": [
        {
          "name": "",
          "type": "bool"
        }
      ],
      "payable": false,
      "stateMutability": "view",
      "type": "function"
    },
    {
      "constant": true,
      "inputs": [
        {
          "name": "_operation",
          "type": "bytes32"
        },
        {
          "name": "_owner",
          "type": "address"
        }
      ],
      "name": "hasConfirmed",
      "outputs": [
        {
          "name": "",
          "type": "bool"
        }
      ],
      "payable": false,
      "stateMutability": "view",
      "type": "function"
    }
  ],
  "bytecode": "0x60806040523061010460006101000a81548173ffffffffffffffffffffffffffffffffffffffff021916908373ffffffffffffffffffffffffffffffffffffffff16021790555034801561005257600080fd5b50604051610aba380380610aba83398101806040528101908080518201929190602001805190602001909291905050506000336001806101008110151561009557fe5b0160006101000a81548173ffffffffffffffffffffffffffffffffffffffff021916908373ffffffffffffffffffffffffffffffffffffffff160217905550600161010160003373ffffffffffffffffffffffffffffffffffffffff1673ffffffffffffffffffffffffffffffffffffffff16815260200190815260200160002081905550600090505b82518110156101fc57828181518110151561013657fe5b906020019060200201516001826002016101008110151561015357fe5b0160006101000a81548173ffffffffffffffffffffffffffffffffffffffff021916908373ffffffffffffffffffffffffffffffffffffffff16021790555080600201610101600085848151811015156101a957fe5b9060200190602002015173ffffffffffffffffffffffffffffffffffffffff1673ffffffffffffffffffffffffffffffffffffffff1681526020019081526020016000208190555080600101905061011f565b610100600054111561020d57600080fd5b81600081905550505050610894806102266000396000f300608060405260043610610078576000357c0100000000000000000000000000000000000000000000000000000000900463ffffffff1680632f54bf6e1461007d578063788023ff146100d8578063b75c7dc614610148578063c2cf732614610179578063c41a360a146101e2578063dc8452cd1461024f575b600080fd5b34801561008957600080fd5b506100be600480360381019080803573ffffffffffffffffffffffffffffffffffffffff16906020019092919050505061027a565b604051808215151515815260200191505060405180910390f35b3480156100e457600080fd5b5061014660048036038101908080359060200190820180359060200190808060200260200160405190810160405280939291908181526020018383602002808284378201915050505050509192919290803590602001909291905050506102c6565b005b34801561015457600080fd5b5061017760048036038101908080356000191690602001909291905050506103f4565b005b34801561018557600080fd5b506101c86004803603810190808035600019169060200190929190803573ffffffffffffffffffffffffffffffffffffffff16906020019092919050505061051e565b604051808215151515815260200191505060405180910390f35b3480156101ee57600080fd5b5061020d600480360381019080803590602001909291905050506105b4565b604051808273ffffffffffffffffffffffffffffffffffffffff1673ffffffffffffffffffffffffffffffffffffffff16815260200191505060405180910390f35b34801561025b57600080fd5b506102646105f1565b6040518082815260200191505060405180910390f35b60008061010160008473ffffffffffffffffffffffffffffffffffffffff1673ffffffffffffffffffffffffffffffffffffffff16815260200190815260200160002054119050919050565b600080366040518083838082843782019150509250505060405180910390206102ee816105f7565b156103ee57600091505b83518210156103d557838281518110151561030f57fe5b906020019060200201516001836001016101008110151561032c57fe5b0160006101000a81548173ffffffffffffffffffffffffffffffffffffffff021916908373ffffffffffffffffffffffffffffffffffffffff160217905550816001016101016000868581518110151561038257fe5b9060200190602002015173ffffffffffffffffffffffffffffffffffffffff1673ffffffffffffffffffffffffffffffffffffffff168152602001908152602001600020819055508160010191506102f8565b61010060005411156103e657600080fd5b826000819055505b50505050565b600080600061010160003373ffffffffffffffffffffffffffffffffffffffff1673ffffffffffffffffffffffffffffffffffffffff168152602001908152602001600020549250600083141561044a57610518565b8260020a915061010260008560001916600019168152602001908152602001600020905060008282600101541611156105175780600001600081548092919060010191905055508181600101600082825403925050819055507fc7fb647e59b18047309aa15aad418e5d7ca96d173ad704f1031a2c3d7591734b3385604051808373ffffffffffffffffffffffffffffffffffffffff1673ffffffffffffffffffffffffffffffffffffffff16815260200182600019166000191681526020019250505060405180910390a15b5b50505050565b60008060008061010260008760001916600019168152602001908152602001600020925061010160008673ffffffffffffffffffffffffffffffffffffffff1673ffffffffffffffffffffffffffffffffffffffff168152602001908152602001600020549150600082141561059757600093506105ab565b8160020a9050600081846001015416141593505b50505092915050565b60006001808301610100811015156105c857fe5b0160009054906101000a900473ffffffffffffffffffffffffffffffffffffffff169050919050565b60005481565b60008060008061010160003373ffffffffffffffffffffffffffffffffffffffff1673ffffffffffffffffffffffffffffffffffffffff168152602001908152602001600020549250600083141561064e5761080f565b6101026000866000191660001916815260200190815260200160002091506000826000015414156106d35760005482600001819055506000826001018190555061010380548091906001016106a39190610817565b82600201819055508461010383600201548154811015156106c057fe5b9060005260206000200181600019169055505b8260020a9050600081836001015416141561080e577fe1c52dc63b719ade82e8bea94cc41a0d5d28e4aaf536adb5e9cccc9ff8c1aeda3386604051808373ffffffffffffffffffffffffffffffffffffffff1673ffffffffffffffffffffffffffffffffffffffff16815260200182600019166000191681526020019250505060405180910390a1600182600001541115156107e657610103610102600087600019166000191681526020019081526020016000206002015481548110151561079857fe5b9060005260206000200160009055610102600086600019166000191681526020019081526020016000206000808201600090556001820160009055600282016000905550506001935061080f565b8160000160008154809291906001900391905055508082600101600082825417925050819055505b5b505050919050565b81548183558181111561083e5781836000526020600020918201910161083d9190610843565b5b505050565b61086591905b80821115610861576000816000905550600101610849565b5090565b905600a165627a7a723058200b61f08ab2cd5a20926acb0be76b77501ed08c999bdb6726cff3916e29df556d0029",
  "source": "pragma solidity ^0.4.11;\n\n\n// From OpenZepplin: https://github.com/OpenZeppelin/zeppelin-solidity/blob/master/contracts/ownership/Shareable.sol\n/*\n * Shareable\n * \n * Effectively our multisig contract\n *\n * Based on https://github.com/ethereum/dapp-bin/blob/master/wallet/wallet.sol\n *\n * inheritable \"property\" contract that enables methods to be protected by requiring the acquiescence of either a single, or, crucially, each of a number of, designated owners.\n *\n * usage:\n * use modifiers onlyowner (just own owned) or onlymanyowners(hash), whereby the same hash must be provided by some number (specified in constructor) of the set of owners (specified in the constructor) before the interior is executed.\n */\ncontract Shareable {\n  // TYPES\n\n  // struct for the status of a pending operation.\n  struct PendingState {\n    uint yetNeeded;\n    uint ownersDone;\n    uint index;\n  }\n\n\n  // FIELDS\n\n  // the number of owners that must confirm the same operation before it is run.\n  uint public required;\n\n  // list of owners\n  address[256] owners;\n  uint constant c_maxOwners = 250;\n  // index on the list of owners to allow reverse lookup\n  mapping(address => uint) ownerIndex;\n  // the ongoing operations.\n  mapping(bytes32 => PendingState) pendings;\n  bytes32[] pendingsIndex;\n\n\n  // EVENTS\n\n  // this contract only has six types of events: it can accept a confirmation, in which case\n  // we record owner and operation (hash) alongside it.\n  event Confirmation(address owner, bytes32 operation);\n  event Revoke(address owner, bytes32 operation);\n\n\n  // MODIFIERS\n\n  address thisContract = this;\n\n  // simple single-sig function modifier.\n  modifier onlyOwner {\n    if (isOwner(msg.sender))\n      _;\n  }\n\n  // multi-sig function modifier: the operation must have an intrinsic hash in order\n  // that later attempts can be realised as the same underlying operation and\n  // thus count as confirmations.\n  modifier onlyManyOwners(bytes32 _operation) {\n    if (confirmAndCheck(_operation))\n      _;\n  }\n\n\n  // CONSTRUCTOR\n\n  // constructor is given number of sigs required to do protected \"onlymanyowners\" transactions\n  // as well as the selection of addresses capable of confirming them.\n  function Shareable(address[] _owners, uint _required) {\n    owners[1] = msg.sender;\n    ownerIndex[msg.sender] = 1;\n    for (uint i = 0; i < _owners.length; ++i) {\n      owners[2 + i] = _owners[i];\n      ownerIndex[_owners[i]] = 2 + i;\n    }\n    if (required > owners.length) throw;\n    required = _required;\n  }\n\n\n  // new multisig is given number of sigs required to do protected \"onlymanyowners\" transactions\n  // as well as the selection of addresses capable of confirming them.\n  // take all new owners as an array\n  function changeShareable(address[] _owners, uint _required) onlyManyOwners(sha3(msg.data)) {\n    for (uint i = 0; i < _owners.length; ++i) {\n      owners[1 + i] = _owners[i];\n      ownerIndex[_owners[i]] = 1 + i;\n    }\n    if (required > owners.length) throw;\n    required = _required;\n  }\n\n  // METHODS\n\n  // Revokes a prior confirmation of the given operation\n  function revoke(bytes32 _operation) external {\n    uint index = ownerIndex[msg.sender];\n    // make sure they're an owner\n    if (index == 0) return;\n    uint ownerIndexBit = 2**index;\n    var pending = pendings[_operation];\n    if (pending.ownersDone & ownerIndexBit > 0) {\n      pending.yetNeeded++;\n      pending.ownersDone -= ownerIndexBit;\n      Revoke(msg.sender, _operation);\n    }\n  }\n\n  // Gets an owner by 0-indexed position (using numOwners as the count)\n  function getOwner(uint ownerIndex) external constant returns (address) {\n    return address(owners[ownerIndex + 1]);\n  }\n\n  function isOwner(address _addr) constant returns (bool) {\n    return ownerIndex[_addr] > 0;\n  }\n\n  function hasConfirmed(bytes32 _operation, address _owner) constant returns (bool) {\n    var pending = pendings[_operation];\n    uint index = ownerIndex[_owner];\n\n    // make sure they're an owner\n    if (index == 0) return false;\n\n    // determine the bit to set for this owner.\n    uint ownerIndexBit = 2**index;\n    return !(pending.ownersDone & ownerIndexBit == 0);\n  }\n\n  // INTERNAL METHODS\n\n  function confirmAndCheck(bytes32 _operation) internal returns (bool) {\n    // determine what index the present sender is:\n    uint index = ownerIndex[msg.sender];\n    // make sure they're an owner\n    if (index == 0) return;\n\n    var pending = pendings[_operation];\n    // if we're not yet working on this operation, switch over and reset the confirmation status.\n    if (pending.yetNeeded == 0) {\n      // reset count of confirmations needed.\n      pending.yetNeeded = required;\n      // reset which owners have confirmed (none) - set our bitmap to 0.\n      pending.ownersDone = 0;\n      pending.index = pendingsIndex.length++;\n      pendingsIndex[pending.index] = _operation;\n    }\n    // determine the bit to set for this owner.\n    uint ownerIndexBit = 2**index;\n    // make sure we (the message sender) haven't confirmed this operation previously.\n    if (pending.ownersDone & ownerIndexBit == 0) {\n      Confirmation(msg.sender, _operation);\n      // ok - check if count is enough to go ahead.\n      if (pending.yetNeeded <= 1) {\n        // enough confirmations: reset and run interior.\n        delete pendingsIndex[pendings[_operation].index];\n        delete pendings[_operation];\n        return true;\n      }\n      else\n        {\n          // not enough: record that this owner in particular confirmed.\n          pending.yetNeeded--;\n          pending.ownersDone |= ownerIndexBit;\n        }\n    }\n  }\n\n  function clearPending() internal {\n    uint length = pendingsIndex.length;\n    for (uint i = 0; i < length; ++i)\n    if (pendingsIndex[i] != 0)\n      delete pendings[pendingsIndex[i]];\n    delete pendingsIndex;\n  }\n}\n",
  "sourcePath": "contracts/Shareable.sol",
  "compiler": {
    "name": "solc",
    "version": "0.4.24+commit.e67f0147.Emscripten.clang"
  },
  "schemaVersion": "2.0.1",
  "updatedAt": "2018-07-19T06:37:02.138Z"
}